{
  "contractName": "NFT",
  "abi": [
    {
      "inputs": [
        {
          "internalType": "address",
          "name": "marketplaceAddress",
          "type": "address"
        }
      ],
      "stateMutability": "nonpayable",
      "type": "constructor"
    },
    {
      "anonymous": false,
      "inputs": [
        {
          "indexed": true,
          "internalType": "address",
          "name": "owner",
          "type": "address"
        },
        {
          "indexed": true,
          "internalType": "address",
          "name": "approved",
          "type": "address"
        },
        {
          "indexed": true,
          "internalType": "uint256",
          "name": "tokenId",
          "type": "uint256"
        }
      ],
      "name": "Approval",
      "type": "event"
    },
    {
      "anonymous": false,
      "inputs": [
        {
          "indexed": true,
          "internalType": "address",
          "name": "owner",
          "type": "address"
        },
        {
          "indexed": true,
          "internalType": "address",
          "name": "operator",
          "type": "address"
        },
        {
          "indexed": false,
          "internalType": "bool",
          "name": "approved",
          "type": "bool"
        }
      ],
      "name": "ApprovalForAll",
      "type": "event"
    },
    {
      "anonymous": false,
      "inputs": [
        {
          "indexed": true,
          "internalType": "address",
          "name": "from",
          "type": "address"
        },
        {
          "indexed": true,
          "internalType": "address",
          "name": "to",
          "type": "address"
        },
        {
          "indexed": true,
          "internalType": "uint256",
          "name": "tokenId",
          "type": "uint256"
        }
      ],
      "name": "Transfer",
      "type": "event"
    },
    {
      "inputs": [
        {
          "internalType": "address",
          "name": "to",
          "type": "address"
        },
        {
          "internalType": "uint256",
          "name": "tokenId",
          "type": "uint256"
        }
      ],
      "name": "approve",
      "outputs": [],
      "stateMutability": "nonpayable",
      "type": "function"
    },
    {
      "inputs": [
        {
          "internalType": "address",
          "name": "owner",
          "type": "address"
        }
      ],
      "name": "balanceOf",
      "outputs": [
        {
          "internalType": "uint256",
          "name": "",
          "type": "uint256"
        }
      ],
      "stateMutability": "view",
      "type": "function",
      "constant": true
    },
    {
      "inputs": [
        {
          "internalType": "uint256",
          "name": "tokenId",
          "type": "uint256"
        }
      ],
      "name": "getApproved",
      "outputs": [
        {
          "internalType": "address",
          "name": "",
          "type": "address"
        }
      ],
      "stateMutability": "view",
      "type": "function",
      "constant": true
    },
    {
      "inputs": [
        {
          "internalType": "address",
          "name": "owner",
          "type": "address"
        },
        {
          "internalType": "address",
          "name": "operator",
          "type": "address"
        }
      ],
      "name": "isApprovedForAll",
      "outputs": [
        {
          "internalType": "bool",
          "name": "",
          "type": "bool"
        }
      ],
      "stateMutability": "view",
      "type": "function",
      "constant": true
    },
    {
      "inputs": [],
      "name": "name",
      "outputs": [
        {
          "internalType": "string",
          "name": "",
          "type": "string"
        }
      ],
      "stateMutability": "view",
      "type": "function",
      "constant": true
    },
    {
      "inputs": [
        {
          "internalType": "uint256",
          "name": "tokenId",
          "type": "uint256"
        }
      ],
      "name": "ownerOf",
      "outputs": [
        {
          "internalType": "address",
          "name": "",
          "type": "address"
        }
      ],
      "stateMutability": "view",
      "type": "function",
      "constant": true
    },
    {
      "inputs": [
        {
          "internalType": "address",
          "name": "from",
          "type": "address"
        },
        {
          "internalType": "address",
          "name": "to",
          "type": "address"
        },
        {
          "internalType": "uint256",
          "name": "tokenId",
          "type": "uint256"
        }
      ],
      "name": "safeTransferFrom",
      "outputs": [],
      "stateMutability": "nonpayable",
      "type": "function"
    },
    {
      "inputs": [
        {
          "internalType": "address",
          "name": "from",
          "type": "address"
        },
        {
          "internalType": "address",
          "name": "to",
          "type": "address"
        },
        {
          "internalType": "uint256",
          "name": "tokenId",
          "type": "uint256"
        },
        {
          "internalType": "bytes",
          "name": "_data",
          "type": "bytes"
        }
      ],
      "name": "safeTransferFrom",
      "outputs": [],
      "stateMutability": "nonpayable",
      "type": "function"
    },
    {
      "inputs": [
        {
          "internalType": "address",
          "name": "operator",
          "type": "address"
        },
        {
          "internalType": "bool",
          "name": "approved",
          "type": "bool"
        }
      ],
      "name": "setApprovalForAll",
      "outputs": [],
      "stateMutability": "nonpayable",
      "type": "function"
    },
    {
      "inputs": [
        {
          "internalType": "bytes4",
          "name": "interfaceId",
          "type": "bytes4"
        }
      ],
      "name": "supportsInterface",
      "outputs": [
        {
          "internalType": "bool",
          "name": "",
          "type": "bool"
        }
      ],
      "stateMutability": "view",
      "type": "function",
      "constant": true
    },
    {
      "inputs": [],
      "name": "symbol",
      "outputs": [
        {
          "internalType": "string",
          "name": "",
          "type": "string"
        }
      ],
      "stateMutability": "view",
      "type": "function",
      "constant": true
    },
    {
      "inputs": [
        {
          "internalType": "uint256",
          "name": "tokenId",
          "type": "uint256"
        }
      ],
      "name": "tokenURI",
      "outputs": [
        {
          "internalType": "string",
          "name": "",
          "type": "string"
        }
      ],
      "stateMutability": "view",
      "type": "function",
      "constant": true
    },
    {
      "inputs": [
        {
          "internalType": "address",
          "name": "from",
          "type": "address"
        },
        {
          "internalType": "address",
          "name": "to",
          "type": "address"
        },
        {
          "internalType": "uint256",
          "name": "tokenId",
          "type": "uint256"
        }
      ],
      "name": "transferFrom",
      "outputs": [],
      "stateMutability": "nonpayable",
      "type": "function"
    },
    {
      "inputs": [
        {
          "internalType": "string",
          "name": "tokenURI",
          "type": "string"
        }
      ],
      "name": "createToken",
      "outputs": [
        {
          "internalType": "uint256",
          "name": "",
          "type": "uint256"
        }
      ],
      "stateMutability": "nonpayable",
      "type": "function"
    },
    {
      "inputs": [],
      "name": "setApprovalAgain",
      "outputs": [
        {
          "internalType": "bool",
          "name": "",
          "type": "bool"
        }
      ],
      "stateMutability": "nonpayable",
      "type": "function"
    }
  ],
  "bytecode": "0x60806040523480156200001157600080fd5b5060405162002f2f38038062002f2f83398181016040528101906200003791906200027a565b6040518060400160405280600881526020017f53757065727761790000000000000000000000000000000000000000000000008152506040518060400160405280600381526020017f53505400000000000000000000000000000000000000000000000000000000008152508160009080519060200190620000bb92919062000160565b508060019080519060200190620000d492919062000160565b50505033600960006101000a81548173ffffffffffffffffffffffffffffffffffffffff021916908373ffffffffffffffffffffffffffffffffffffffff16021790555080600860006101000a81548173ffffffffffffffffffffffffffffffffffffffff021916908373ffffffffffffffffffffffffffffffffffffffff1602179055505062000311565b8280546200016e90620002db565b90600052602060002090601f016020900481019282620001925760008555620001de565b82601f10620001ad57805160ff1916838001178555620001de565b82800160010185558215620001de579182015b82811115620001dd578251825591602001919060010190620001c0565b5b509050620001ed9190620001f1565b5090565b5b808211156200020c576000816000905550600101620001f2565b5090565b600080fd5b600073ffffffffffffffffffffffffffffffffffffffff82169050919050565b6000620002428262000215565b9050919050565b620002548162000235565b81146200026057600080fd5b50565b600081519050620002748162000249565b92915050565b60006020828403121562000293576200029262000210565b5b6000620002a38482850162000263565b91505092915050565b7f4e487b7100000000000000000000000000000000000000000000000000000000600052602260045260246000fd5b60006002820490506001821680620002f457607f821691505b602082108114156200030b576200030a620002ac565b5b50919050565b612c0e80620003216000396000f3fe608060405234801561001057600080fd5b50600436106100f55760003560e01c80636352211e11610097578063a22cb46511610066578063a22cb46514610298578063b88d4fde146102b4578063c87b56dd146102d0578063e985e9c514610300576100f5565b80636352211e146101fc57806370a082311461022c5780638418f03c1461025c57806395d89b411461027a576100f5565b8063095ea7b3116100d3578063095ea7b31461017857806323b872dd1461019457806342842e0e146101b057806345576f94146101cc576100f5565b806301ffc9a7146100fa57806306fdde031461012a578063081812fc14610148575b600080fd5b610114600480360381019061010f9190611983565b610330565b60405161012191906119cb565b60405180910390f35b610132610412565b60405161013f9190611a7f565b60405180910390f35b610162600480360381019061015d9190611ad7565b6104a4565b60405161016f9190611b45565b60405180910390f35b610192600480360381019061018d9190611b8c565b610529565b005b6101ae60048036038101906101a99190611bcc565b610641565b005b6101ca60048036038101906101c59190611bcc565b6106a1565b005b6101e660048036038101906101e19190611d54565b6106c1565b6040516101f39190611dac565b60405180910390f35b61021660048036038101906102119190611ad7565b610725565b6040516102239190611b45565b60405180910390f35b61024660048036038101906102419190611dc7565b6107d7565b6040516102539190611dac565b60405180910390f35b61026461088f565b60405161027191906119cb565b60405180910390f35b6102826108c5565b60405161028f9190611a7f565b60405180910390f35b6102b260048036038101906102ad9190611e20565b610957565b005b6102ce60048036038101906102c99190611f01565b61096d565b005b6102ea60048036038101906102e59190611ad7565b6109cf565b6040516102f79190611a7f565b60405180910390f35b61031a60048036038101906103159190611f84565b610b21565b60405161032791906119cb565b60405180910390f35b60007f80ac58cd000000000000000000000000000000000000000000000000000000007bffffffffffffffffffffffffffffffffffffffffffffffffffffffff1916827bffffffffffffffffffffffffffffffffffffffffffffffffffffffff191614806103fb57507f5b5e139f000000000000000000000000000000000000000000000000000000007bffffffffffffffffffffffffffffffffffffffffffffffffffffffff1916827bffffffffffffffffffffffffffffffffffffffffffffffffffffffff1916145b8061040b575061040a82610bb5565b5b9050919050565b60606000805461042190611ff3565b80601f016020809104026020016040519081016040528092919081815260200182805461044d90611ff3565b801561049a5780601f1061046f5761010080835404028352916020019161049a565b820191906000526020600020905b81548152906001019060200180831161047d57829003601f168201915b5050505050905090565b60006104af82610c1f565b6104ee576040517f08c379a00000000000000000000000000000000000000000000000000000000081526004016104e590612097565b60405180910390fd5b6004600083815260200190815260200160002060009054906101000a900473ffffffffffffffffffffffffffffffffffffffff169050919050565b600061053482610725565b90508073ffffffffffffffffffffffffffffffffffffffff168373ffffffffffffffffffffffffffffffffffffffff1614156105a5576040517f08c379a000000000000000000000000000000000000000000000000000000000815260040161059c90612129565b60405180910390fd5b8073ffffffffffffffffffffffffffffffffffffffff166105c4610c8b565b73ffffffffffffffffffffffffffffffffffffffff1614806105f357506105f2816105ed610c8b565b610b21565b5b610632576040517f08c379a0000000000000000000000000000000000000000000000000000000008152600401610629906121bb565b60405180910390fd5b61063c8383610c93565b505050565b61065261064c610c8b565b82610d4c565b610691576040517f08c379a00000000000000000000000000000000000000000000000000000000081526004016106889061224d565b60405180910390fd5b61069c838383610e2a565b505050565b6106bc8383836040518060200160405280600081525061096d565b505050565b60006106cd6007611086565b60006106d9600761109c565b90506106e533826110aa565b6106ef8184611278565b61071c600860009054906101000a900473ffffffffffffffffffffffffffffffffffffffff166001610957565b80915050919050565b6000806002600084815260200190815260200160002060009054906101000a900473ffffffffffffffffffffffffffffffffffffffff169050600073ffffffffffffffffffffffffffffffffffffffff168173ffffffffffffffffffffffffffffffffffffffff1614156107ce576040517f08c379a00000000000000000000000000000000000000000000000000000000081526004016107c5906122df565b60405180910390fd5b80915050919050565b60008073ffffffffffffffffffffffffffffffffffffffff168273ffffffffffffffffffffffffffffffffffffffff161415610848576040517f08c379a000000000000000000000000000000000000000000000000000000000815260040161083f90612371565b60405180910390fd5b600360008373ffffffffffffffffffffffffffffffffffffffff1673ffffffffffffffffffffffffffffffffffffffff168152602001908152602001600020549050919050565b60006108be600860009054906101000a900473ffffffffffffffffffffffffffffffffffffffff166001610957565b6001905090565b6060600180546108d490611ff3565b80601f016020809104026020016040519081016040528092919081815260200182805461090090611ff3565b801561094d5780601f106109225761010080835404028352916020019161094d565b820191906000526020600020905b81548152906001019060200180831161093057829003601f168201915b5050505050905090565b610969610962610c8b565b83836112ec565b5050565b61097e610978610c8b565b83610d4c565b6109bd576040517f08c379a00000000000000000000000000000000000000000000000000000000081526004016109b49061224d565b60405180910390fd5b6109c984848484611459565b50505050565b60606109da82610c1f565b610a19576040517f08c379a0000000000000000000000000000000000000000000000000000000008152600401610a1090612403565b60405180910390fd5b6000600660008481526020019081526020016000208054610a3990611ff3565b80601f0160208091040260200160405190810160405280929190818152602001828054610a6590611ff3565b8015610ab25780601f10610a8757610100808354040283529160200191610ab2565b820191906000526020600020905b815481529060010190602001808311610a9557829003601f168201915b505050505090506000610ac36114b5565b9050600081511415610ad9578192505050610b1c565b600082511115610b0e578082604051602001610af692919061245f565b60405160208183030381529060405292505050610b1c565b610b17846114cc565b925050505b919050565b6000600560008473ffffffffffffffffffffffffffffffffffffffff1673ffffffffffffffffffffffffffffffffffffffff16815260200190815260200160002060008373ffffffffffffffffffffffffffffffffffffffff1673ffffffffffffffffffffffffffffffffffffffff16815260200190815260200160002060009054906101000a900460ff16905092915050565b60007f01ffc9a7000000000000000000000000000000000000000000000000000000007bffffffffffffffffffffffffffffffffffffffffffffffffffffffff1916827bffffffffffffffffffffffffffffffffffffffffffffffffffffffff1916149050919050565b60008073ffffffffffffffffffffffffffffffffffffffff166002600084815260200190815260200160002060009054906101000a900473ffffffffffffffffffffffffffffffffffffffff1673ffffffffffffffffffffffffffffffffffffffff1614159050919050565b600033905090565b816004600083815260200190815260200160002060006101000a81548173ffffffffffffffffffffffffffffffffffffffff021916908373ffffffffffffffffffffffffffffffffffffffff160217905550808273ffffffffffffffffffffffffffffffffffffffff16610d0683610725565b73ffffffffffffffffffffffffffffffffffffffff167f8c5be1e5ebec7d5bd14f71427d1e84f3dd0314c0f7b2291e5b200ac8c7c3b92560405160405180910390a45050565b6000610d5782610c1f565b610d96576040517f08c379a0000000000000000000000000000000000000000000000000000000008152600401610d8d906124f5565b60405180910390fd5b6000610da183610725565b90508073ffffffffffffffffffffffffffffffffffffffff168473ffffffffffffffffffffffffffffffffffffffff161480610e1057508373ffffffffffffffffffffffffffffffffffffffff16610df8846104a4565b73ffffffffffffffffffffffffffffffffffffffff16145b80610e215750610e208185610b21565b5b91505092915050565b8273ffffffffffffffffffffffffffffffffffffffff16610e4a82610725565b73ffffffffffffffffffffffffffffffffffffffff1614610ea0576040517f08c379a0000000000000000000000000000000000000000000000000000000008152600401610e9790612587565b60405180910390fd5b600073ffffffffffffffffffffffffffffffffffffffff168273ffffffffffffffffffffffffffffffffffffffff161415610f10576040517f08c379a0000000000000000000000000000000000000000000000000000000008152600401610f0790612619565b60405180910390fd5b610f1b838383611573565b610f26600082610c93565b6001600360008573ffffffffffffffffffffffffffffffffffffffff1673ffffffffffffffffffffffffffffffffffffffff1681526020019081526020016000206000828254610f769190612668565b925050819055506001600360008473ffffffffffffffffffffffffffffffffffffffff1673ffffffffffffffffffffffffffffffffffffffff1681526020019081526020016000206000828254610fcd919061269c565b92505081905550816002600083815260200190815260200160002060006101000a81548173ffffffffffffffffffffffffffffffffffffffff021916908373ffffffffffffffffffffffffffffffffffffffff160217905550808273ffffffffffffffffffffffffffffffffffffffff168473ffffffffffffffffffffffffffffffffffffffff167fddf252ad1be2c89b69c2b068fc378daa952ba7f163c4a11628f55a4df523b3ef60405160405180910390a4505050565b6001816000016000828254019250508190555050565b600081600001549050919050565b600073ffffffffffffffffffffffffffffffffffffffff168273ffffffffffffffffffffffffffffffffffffffff16141561111a576040517f08c379a00000000000000000000000000000000000000000000000000000000081526004016111119061273e565b60405180910390fd5b61112381610c1f565b15611163576040517f08c379a000000000000000000000000000000000000000000000000000000000815260040161115a906127aa565b60405180910390fd5b61116f60008383611573565b6001600360008473ffffffffffffffffffffffffffffffffffffffff1673ffffffffffffffffffffffffffffffffffffffff16815260200190815260200160002060008282546111bf919061269c565b92505081905550816002600083815260200190815260200160002060006101000a81548173ffffffffffffffffffffffffffffffffffffffff021916908373ffffffffffffffffffffffffffffffffffffffff160217905550808273ffffffffffffffffffffffffffffffffffffffff16600073ffffffffffffffffffffffffffffffffffffffff167fddf252ad1be2c89b69c2b068fc378daa952ba7f163c4a11628f55a4df523b3ef60405160405180910390a45050565b61128182610c1f565b6112c0576040517f08c379a00000000000000000000000000000000000000000000000000000000081526004016112b79061283c565b60405180910390fd5b806006600084815260200190815260200160002090805190602001906112e7929190611874565b505050565b8173ffffffffffffffffffffffffffffffffffffffff168373ffffffffffffffffffffffffffffffffffffffff16141561135b576040517f08c379a0000000000000000000000000000000000000000000000000000000008152600401611352906128a8565b60405180910390fd5b80600560008573ffffffffffffffffffffffffffffffffffffffff1673ffffffffffffffffffffffffffffffffffffffff16815260200190815260200160002060008473ffffffffffffffffffffffffffffffffffffffff1673ffffffffffffffffffffffffffffffffffffffff16815260200190815260200160002060006101000a81548160ff0219169083151502179055508173ffffffffffffffffffffffffffffffffffffffff168373ffffffffffffffffffffffffffffffffffffffff167f17307eab39ab6107e8899845ad3d59bd9653f200f220920489ca2b5937696c318360405161144c91906119cb565b60405180910390a3505050565b611464848484610e2a565b61147084848484611578565b6114af576040517f08c379a00000000000000000000000000000000000000000000000000000000081526004016114a69061293a565b60405180910390fd5b50505050565b606060405180602001604052806000815250905090565b60606114d782610c1f565b611516576040517f08c379a000000000000000000000000000000000000000000000000000000000815260040161150d906129cc565b60405180910390fd5b60006115206114b5565b90506000815111611540576040518060200160405280600081525061156b565b8061154a84611700565b60405160200161155b92919061245f565b6040516020818303038152906040525b915050919050565b505050565b60006115998473ffffffffffffffffffffffffffffffffffffffff16611861565b156116f3578373ffffffffffffffffffffffffffffffffffffffff1663150b7a026115c2610c8b565b8786866040518563ffffffff1660e01b81526004016115e49493929190612a41565b6020604051808303816000875af192505050801561162057506040513d601f19601f8201168201806040525081019061161d9190612aa2565b60015b6116a3573d8060008114611650576040519150601f19603f3d011682016040523d82523d6000602084013e611655565b606091505b5060008151141561169b576040517f08c379a00000000000000000000000000000000000000000000000000000000081526004016116929061293a565b60405180910390fd5b805181602001fd5b63150b7a0260e01b7bffffffffffffffffffffffffffffffffffffffffffffffffffffffff1916817bffffffffffffffffffffffffffffffffffffffffffffffffffffffff1916149150506116f8565b600190505b949350505050565b60606000821415611748576040518060400160405280600181526020017f3000000000000000000000000000000000000000000000000000000000000000815250905061185c565b600082905060005b6000821461177a57808061176390612acf565b915050600a826117739190612b47565b9150611750565b60008167ffffffffffffffff81111561179657611795611c29565b5b6040519080825280601f01601f1916602001820160405280156117c85781602001600182028036833780820191505090505b5090505b60008514611855576001826117e19190612668565b9150600a856117f09190612b78565b60306117fc919061269c565b60f81b81838151811061181257611811612ba9565b5b60200101907effffffffffffffffffffffffffffffffffffffffffffffffffffffffffffff1916908160001a905350600a8561184e9190612b47565b94506117cc565b8093505050505b919050565b600080823b905060008111915050919050565b82805461188090611ff3565b90600052602060002090601f0160209004810192826118a257600085556118e9565b82601f106118bb57805160ff19168380011785556118e9565b828001600101855582156118e9579182015b828111156118e85782518255916020019190600101906118cd565b5b5090506118f691906118fa565b5090565b5b808211156119135760008160009055506001016118fb565b5090565b6000604051905090565b600080fd5b600080fd5b60007fffffffff0000000000000000000000000000000000000000000000000000000082169050919050565b6119608161192b565b811461196b57600080fd5b50565b60008135905061197d81611957565b92915050565b60006020828403121561199957611998611921565b5b60006119a78482850161196e565b91505092915050565b60008115159050919050565b6119c5816119b0565b82525050565b60006020820190506119e060008301846119bc565b92915050565b600081519050919050565b600082825260208201905092915050565b60005b83811015611a20578082015181840152602081019050611a05565b83811115611a2f576000848401525b50505050565b6000601f19601f8301169050919050565b6000611a51826119e6565b611a5b81856119f1565b9350611a6b818560208601611a02565b611a7481611a35565b840191505092915050565b60006020820190508181036000830152611a998184611a46565b905092915050565b6000819050919050565b611ab481611aa1565b8114611abf57600080fd5b50565b600081359050611ad181611aab565b92915050565b600060208284031215611aed57611aec611921565b5b6000611afb84828501611ac2565b91505092915050565b600073ffffffffffffffffffffffffffffffffffffffff82169050919050565b6000611b2f82611b04565b9050919050565b611b3f81611b24565b82525050565b6000602082019050611b5a6000830184611b36565b92915050565b611b6981611b24565b8114611b7457600080fd5b50565b600081359050611b8681611b60565b92915050565b60008060408385031215611ba357611ba2611921565b5b6000611bb185828601611b77565b9250506020611bc285828601611ac2565b9150509250929050565b600080600060608486031215611be557611be4611921565b5b6000611bf386828701611b77565b9350506020611c0486828701611b77565b9250506040611c1586828701611ac2565b9150509250925092565b600080fd5b600080fd5b7f4e487b7100000000000000000000000000000000000000000000000000000000600052604160045260246000fd5b611c6182611a35565b810181811067ffffffffffffffff82111715611c8057611c7f611c29565b5b80604052505050565b6000611c93611917565b9050611c9f8282611c58565b919050565b600067ffffffffffffffff821115611cbf57611cbe611c29565b5b611cc882611a35565b9050602081019050919050565b82818337600083830152505050565b6000611cf7611cf284611ca4565b611c89565b905082815260208101848484011115611d1357611d12611c24565b5b611d1e848285611cd5565b509392505050565b600082601f830112611d3b57611d3a611c1f565b5b8135611d4b848260208601611ce4565b91505092915050565b600060208284031215611d6a57611d69611921565b5b600082013567ffffffffffffffff811115611d8857611d87611926565b5b611d9484828501611d26565b91505092915050565b611da681611aa1565b82525050565b6000602082019050611dc16000830184611d9d565b92915050565b600060208284031215611ddd57611ddc611921565b5b6000611deb84828501611b77565b91505092915050565b611dfd816119b0565b8114611e0857600080fd5b50565b600081359050611e1a81611df4565b92915050565b60008060408385031215611e3757611e36611921565b5b6000611e4585828601611b77565b9250506020611e5685828601611e0b565b9150509250929050565b600067ffffffffffffffff821115611e7b57611e7a611c29565b5b611e8482611a35565b9050602081019050919050565b6000611ea4611e9f84611e60565b611c89565b905082815260208101848484011115611ec057611ebf611c24565b5b611ecb848285611cd5565b509392505050565b600082601f830112611ee857611ee7611c1f565b5b8135611ef8848260208601611e91565b91505092915050565b60008060008060808587031215611f1b57611f1a611921565b5b6000611f2987828801611b77565b9450506020611f3a87828801611b77565b9350506040611f4b87828801611ac2565b925050606085013567ffffffffffffffff811115611f6c57611f6b611926565b5b611f7887828801611ed3565b91505092959194509250565b60008060408385031215611f9b57611f9a611921565b5b6000611fa985828601611b77565b9250506020611fba85828601611b77565b9150509250929050565b7f4e487b7100000000000000000000000000000000000000000000000000000000600052602260045260246000fd5b6000600282049050600182168061200b57607f821691505b6020821081141561201f5761201e611fc4565b5b50919050565b7f4552433732313a20617070726f76656420717565727920666f72206e6f6e657860008201527f697374656e7420746f6b656e0000000000000000000000000000000000000000602082015250565b6000612081602c836119f1565b915061208c82612025565b604082019050919050565b600060208201905081810360008301526120b081612074565b9050919050565b7f4552433732313a20617070726f76616c20746f2063757272656e74206f776e6560008201527f7200000000000000000000000000000000000000000000000000000000000000602082015250565b60006121136021836119f1565b915061211e826120b7565b604082019050919050565b6000602082019050818103600083015261214281612106565b9050919050565b7f4552433732313a20617070726f76652063616c6c6572206973206e6f74206f7760008201527f6e6572206e6f7220617070726f76656420666f7220616c6c0000000000000000602082015250565b60006121a56038836119f1565b91506121b082612149565b604082019050919050565b600060208201905081810360008301526121d481612198565b9050919050565b7f4552433732313a207472616e736665722063616c6c6572206973206e6f74206f60008201527f776e6572206e6f7220617070726f766564000000000000000000000000000000602082015250565b60006122376031836119f1565b9150612242826121db565b604082019050919050565b600060208201905081810360008301526122668161222a565b9050919050565b7f4552433732313a206f776e657220717565727920666f72206e6f6e657869737460008201527f656e7420746f6b656e0000000000000000000000000000000000000000000000602082015250565b60006122c96029836119f1565b91506122d48261226d565b604082019050919050565b600060208201905081810360008301526122f8816122bc565b9050919050565b7f4552433732313a2062616c616e636520717565727920666f7220746865207a6560008201527f726f206164647265737300000000000000000000000000000000000000000000602082015250565b600061235b602a836119f1565b9150612366826122ff565b604082019050919050565b6000602082019050818103600083015261238a8161234e565b9050919050565b7f45524337323155524953746f726167653a2055524920717565727920666f722060008201527f6e6f6e6578697374656e7420746f6b656e000000000000000000000000000000602082015250565b60006123ed6031836119f1565b91506123f882612391565b604082019050919050565b6000602082019050818103600083015261241c816123e0565b9050919050565b600081905092915050565b6000612439826119e6565b6124438185612423565b9350612453818560208601611a02565b80840191505092915050565b600061246b828561242e565b9150612477828461242e565b91508190509392505050565b7f4552433732313a206f70657261746f7220717565727920666f72206e6f6e657860008201527f697374656e7420746f6b656e0000000000000000000000000000000000000000602082015250565b60006124df602c836119f1565b91506124ea82612483565b604082019050919050565b6000602082019050818103600083015261250e816124d2565b9050919050565b7f4552433732313a207472616e73666572206f6620746f6b656e2074686174206960008201527f73206e6f74206f776e0000000000000000000000000000000000000000000000602082015250565b60006125716029836119f1565b915061257c82612515565b604082019050919050565b600060208201905081810360008301526125a081612564565b9050919050565b7f4552433732313a207472616e7366657220746f20746865207a65726f2061646460008201527f7265737300000000000000000000000000000000000000000000000000000000602082015250565b60006126036024836119f1565b915061260e826125a7565b604082019050919050565b60006020820190508181036000830152612632816125f6565b9050919050565b7f4e487b7100000000000000000000000000000000000000000000000000000000600052601160045260246000fd5b600061267382611aa1565b915061267e83611aa1565b92508282101561269157612690612639565b5b828203905092915050565b60006126a782611aa1565b91506126b283611aa1565b9250827fffffffffffffffffffffffffffffffffffffffffffffffffffffffffffffffff038211156126e7576126e6612639565b5b828201905092915050565b7f4552433732313a206d696e7420746f20746865207a65726f2061646472657373600082015250565b60006127286020836119f1565b9150612733826126f2565b602082019050919050565b600060208201905081810360008301526127578161271b565b9050919050565b7f4552433732313a20746f6b656e20616c7265616479206d696e74656400000000600082015250565b6000612794601c836119f1565b915061279f8261275e565b602082019050919050565b600060208201905081810360008301526127c381612787565b9050919050565b7f45524337323155524953746f726167653a2055524920736574206f66206e6f6e60008201527f6578697374656e7420746f6b656e000000000000000000000000000000000000602082015250565b6000612826602e836119f1565b9150612831826127ca565b604082019050919050565b6000602082019050818103600083015261285581612819565b9050919050565b7f4552433732313a20617070726f766520746f2063616c6c657200000000000000600082015250565b60006128926019836119f1565b915061289d8261285c565b602082019050919050565b600060208201905081810360008301526128c181612885565b9050919050565b7f4552433732313a207472616e7366657220746f206e6f6e20455243373231526560008201527f63656976657220696d706c656d656e7465720000000000000000000000000000602082015250565b60006129246032836119f1565b915061292f826128c8565b604082019050919050565b6000602082019050818103600083015261295381612917565b9050919050565b7f4552433732314d657461646174613a2055524920717565727920666f72206e6f60008201527f6e6578697374656e7420746f6b656e0000000000000000000000000000000000602082015250565b60006129b6602f836119f1565b91506129c18261295a565b604082019050919050565b600060208201905081810360008301526129e5816129a9565b9050919050565b600081519050919050565b600082825260208201905092915050565b6000612a13826129ec565b612a1d81856129f7565b9350612a2d818560208601611a02565b612a3681611a35565b840191505092915050565b6000608082019050612a566000830187611b36565b612a636020830186611b36565b612a706040830185611d9d565b8181036060830152612a828184612a08565b905095945050505050565b600081519050612a9c81611957565b92915050565b600060208284031215612ab857612ab7611921565b5b6000612ac684828501612a8d565b91505092915050565b6000612ada82611aa1565b91507fffffffffffffffffffffffffffffffffffffffffffffffffffffffffffffffff821415612b0d57612b0c612639565b5b600182019050919050565b7f4e487b7100000000000000000000000000000000000000000000000000000000600052601260045260246000fd5b6000612b5282611aa1565b9150612b5d83611aa1565b925082612b6d57612b6c612b18565b5b828204905092915050565b6000612b8382611aa1565b9150612b8e83611aa1565b925082612b9e57612b9d612b18565b5b828206905092915050565b7f4e487b7100000000000000000000000000000000000000000000000000000000600052603260045260246000fdfea264697066735822122079b52905ea4f9508e3c07c1d1eb6c9d9201e5b78676089aa3e1b5d85cf1003f064736f6c634300080a0033",
  "immutableReferences": {},
  "source": "// SPDX-License-Identifier: MIT\npragma solidity ^0.8.10;\n\nimport \"@openzeppelin/contracts/utils/Counters.sol\";\nimport \"@openzeppelin/contracts/token/ERC721/extensions/ERC721URIStorage.sol\";\nimport \"@openzeppelin/contracts/token/ERC721/ERC721.sol\";\n\n\ncontract NFT is ERC721URIStorage {\n    using Counters for Counters.Counter;\n    Counters.Counter private _tokenIds;\n    address contractAddress;\n    address private owner;\n\n\n    constructor(address marketplaceAddress) ERC721(\"Superway\", \"SPT\") {\n        owner = msg.sender;\n        contractAddress = marketplaceAddress;\n    }\n\n    function createToken(string memory tokenURI) public returns (uint) {\n        _tokenIds.increment();\n        uint256 newItemId = _tokenIds.current();\n\n        _mint(msg.sender, newItemId);\n        _setTokenURI(newItemId, tokenURI);\n        setApprovalForAll(contractAddress, true);\n        return newItemId;\n    }\n\n    function setApprovalAgain() public returns (bool) {\n        setApprovalForAll(contractAddress, true);\n        return true;\n    }\n}\n",
  "sourcePath": "/Users/apple/Documents/blockchain/superway-bsc/contracts/NFT.sol",
  "compiler": {
    "name": "solc",
    "version": "0.8.10+commit.fc410830.Emscripten.clang"
  },
  "schemaVersion": "3.4.4",
  "updatedAt": "2022-03-14T09:32:11.123Z",
  "networkType": "ethereum",
  "devdoc": {
    "kind": "dev",
    "methods": {
      "approve(address,uint256)": {
        "details": "See {IERC721-approve}."
      },
      "balanceOf(address)": {
        "details": "See {IERC721-balanceOf}."
      },
      "getApproved(uint256)": {
        "details": "See {IERC721-getApproved}."
      },
      "isApprovedForAll(address,address)": {
        "details": "See {IERC721-isApprovedForAll}."
      },
      "name()": {
        "details": "See {IERC721Metadata-name}."
      },
      "ownerOf(uint256)": {
        "details": "See {IERC721-ownerOf}."
      },
      "safeTransferFrom(address,address,uint256)": {
        "details": "See {IERC721-safeTransferFrom}."
      },
      "safeTransferFrom(address,address,uint256,bytes)": {
        "details": "See {IERC721-safeTransferFrom}."
      },
      "setApprovalForAll(address,bool)": {
        "details": "See {IERC721-setApprovalForAll}."
      },
      "supportsInterface(bytes4)": {
        "details": "See {IERC165-supportsInterface}."
      },
      "symbol()": {
        "details": "See {IERC721Metadata-symbol}."
      },
      "tokenURI(uint256)": {
        "details": "See {IERC721Metadata-tokenURI}."
      },
      "transferFrom(address,address,uint256)": {
        "details": "See {IERC721-transferFrom}."
      }
    },
    "version": 1
  },
  "userdoc": {
    "kind": "user",
    "methods": {},
    "version": 1
  }
}