{
  "contractName": "NFTAuction",
  "abi": [
    {
      "inputs": [
        {
          "internalType": "uint256",
          "name": "_biddingTime",
          "type": "uint256"
        },
        {
          "internalType": "string",
          "name": "_auctionEndDate",
          "type": "string"
        },
        {
          "internalType": "address payable",
          "name": "_beneficiary",
          "type": "address"
        },
        {
          "internalType": "address payable",
          "name": "_artist",
          "type": "address"
        }
      ],
      "stateMutability": "nonpayable",
      "type": "constructor"
    },
    {
      "anonymous": false,
      "inputs": [
        {
          "indexed": false,
          "internalType": "address",
          "name": "winner",
          "type": "address"
        },
        {
          "indexed": false,
          "internalType": "uint256",
          "name": "amount",
          "type": "uint256"
        }
      ],
      "name": "AuctionEnded",
      "type": "event"
    },
    {
      "anonymous": false,
      "inputs": [
        {
          "indexed": false,
          "internalType": "address",
          "name": "bidder",
          "type": "address"
        },
        {
          "indexed": false,
          "internalType": "uint256",
          "name": "amount",
          "type": "uint256"
        }
      ],
      "name": "highestBidIncrease",
      "type": "event"
    },
    {
      "inputs": [],
      "name": "artist",
      "outputs": [
        {
          "internalType": "address payable",
          "name": "",
          "type": "address"
        }
      ],
      "stateMutability": "view",
      "type": "function"
    },
    {
      "inputs": [],
      "name": "auctionEndDate",
      "outputs": [
        {
          "internalType": "string",
          "name": "",
          "type": "string"
        }
      ],
      "stateMutability": "view",
      "type": "function"
    },
    {
      "inputs": [],
      "name": "auctionEndTime",
      "outputs": [
        {
          "internalType": "uint256",
          "name": "",
          "type": "uint256"
        }
      ],
      "stateMutability": "view",
      "type": "function"
    },
    {
      "inputs": [],
      "name": "beneficiary",
      "outputs": [
        {
          "internalType": "address payable",
          "name": "",
          "type": "address"
        }
      ],
      "stateMutability": "view",
      "type": "function"
    },
    {
      "inputs": [
        {
          "internalType": "uint256",
          "name": "",
          "type": "uint256"
        }
      ],
      "name": "bids",
      "outputs": [
        {
          "internalType": "uint256",
          "name": "id",
          "type": "uint256"
        },
        {
          "internalType": "address",
          "name": "bidder",
          "type": "address"
        },
        {
          "internalType": "uint256",
          "name": "amount",
          "type": "uint256"
        },
        {
          "internalType": "bool",
          "name": "withdrawn",
          "type": "bool"
        }
      ],
      "stateMutability": "view",
      "type": "function"
    },
    {
      "inputs": [],
      "name": "highestBid",
      "outputs": [
        {
          "internalType": "uint256",
          "name": "",
          "type": "uint256"
        }
      ],
      "stateMutability": "view",
      "type": "function"
    },
    {
      "inputs": [],
      "name": "highestBidder",
      "outputs": [
        {
          "internalType": "address",
          "name": "",
          "type": "address"
        }
      ],
      "stateMutability": "view",
      "type": "function"
    },
    {
      "inputs": [
        {
          "internalType": "address",
          "name": "",
          "type": "address"
        }
      ],
      "name": "pendingReturns",
      "outputs": [
        {
          "internalType": "uint256",
          "name": "",
          "type": "uint256"
        }
      ],
      "stateMutability": "view",
      "type": "function"
    },
    {
      "inputs": [],
      "name": "getAllBids",
      "outputs": [
        {
          "components": [
            {
              "internalType": "uint256",
              "name": "id",
              "type": "uint256"
            },
            {
              "internalType": "address",
              "name": "bidder",
              "type": "address"
            },
            {
              "internalType": "uint256",
              "name": "amount",
              "type": "uint256"
            },
            {
              "internalType": "bool",
              "name": "withdrawn",
              "type": "bool"
            }
          ],
          "internalType": "struct NFTAuction.Bid[]",
          "name": "",
          "type": "tuple[]"
        }
      ],
      "stateMutability": "view",
      "type": "function"
    },
    {
      "inputs": [],
      "name": "bid",
      "outputs": [],
      "stateMutability": "payable",
      "type": "function"
    },
    {
      "inputs": [
        {
          "internalType": "uint256",
          "name": "_bidId",
          "type": "uint256"
        }
      ],
      "name": "withdraw",
      "outputs": [
        {
          "internalType": "bool",
          "name": "",
          "type": "bool"
        }
      ],
      "stateMutability": "nonpayable",
      "type": "function"
    },
    {
      "inputs": [],
      "name": "auctionEnd",
      "outputs": [],
      "stateMutability": "nonpayable",
      "type": "function"
    }
  ],
  "bytecode": "0x60806040526000600960006101000a81548160ff0219169083151502179055503480156200002c57600080fd5b5060405162001aa038038062001aa08339818101604052810190620000529190620003f8565b81600160006101000a81548173ffffffffffffffffffffffffffffffffffffffff021916908373ffffffffffffffffffffffffffffffffffffffff16021790555080600260006101000a81548173ffffffffffffffffffffffffffffffffffffffff021916908373ffffffffffffffffffffffffffffffffffffffff1602179055508342620000e29190620004b8565b6003819055508260049080519060200190620001009291906200010b565b50505050506200057a565b828054620001199062000544565b90600052602060002090601f0160209004810192826200013d576000855562000189565b82601f106200015857805160ff191683800117855562000189565b8280016001018555821562000189579182015b82811115620001885782518255916020019190600101906200016b565b5b5090506200019891906200019c565b5090565b5b80821115620001b75760008160009055506001016200019d565b5090565b6000604051905090565b600080fd5b600080fd5b6000819050919050565b620001e481620001cf565b8114620001f057600080fd5b50565b6000815190506200020481620001d9565b92915050565b600080fd5b600080fd5b6000601f19601f8301169050919050565b7f4e487b7100000000000000000000000000000000000000000000000000000000600052604160045260246000fd5b6200025f8262000214565b810181811067ffffffffffffffff8211171562000281576200028062000225565b5b80604052505050565b600062000296620001bb565b9050620002a4828262000254565b919050565b600067ffffffffffffffff821115620002c757620002c662000225565b5b620002d28262000214565b9050602081019050919050565b60005b83811015620002ff578082015181840152602081019050620002e2565b838111156200030f576000848401525b50505050565b60006200032c6200032684620002a9565b6200028a565b9050828152602081018484840111156200034b576200034a6200020f565b5b62000358848285620002df565b509392505050565b600082601f8301126200037857620003776200020a565b5b81516200038a84826020860162000315565b91505092915050565b600073ffffffffffffffffffffffffffffffffffffffff82169050919050565b6000620003c08262000393565b9050919050565b620003d281620003b3565b8114620003de57600080fd5b50565b600081519050620003f281620003c7565b92915050565b60008060008060808587031215620004155762000414620001c5565b5b60006200042587828801620001f3565b945050602085015167ffffffffffffffff811115620004495762000448620001ca565b5b620004578782880162000360565b93505060406200046a87828801620003e1565b92505060606200047d87828801620003e1565b91505092959194509250565b7f4e487b7100000000000000000000000000000000000000000000000000000000600052601160045260246000fd5b6000620004c582620001cf565b9150620004d283620001cf565b9250827fffffffffffffffffffffffffffffffffffffffffffffffffffffffffffffffff038211156200050a576200050962000489565b5b828201905092915050565b7f4e487b7100000000000000000000000000000000000000000000000000000000600052602260045260246000fd5b600060028204905060018216806200055d57607f821691505b6020821081141562000574576200057362000515565b5b50919050565b611516806200058a6000396000f3fe6080604052600436106100a75760003560e01c806343bc16121161006457806343bc16121461019d5780634423c5f1146101c85780634b449cba146102085780638d0f6da31461023357806391f901571461025e578063d57bde7914610289576100a7565b80631998aeef146100ac57806326b387bb146100b65780632a24f46c146100f35780632e1a7d4d1461010a57806338af3eed146101475780633d827e0514610172575b600080fd5b6100b46102b4565b005b3480156100c257600080fd5b506100dd60048036038101906100d89190610cad565b6105de565b6040516100ea9190610cf3565b60405180910390f35b3480156100ff57600080fd5b506101086105f6565b005b34801561011657600080fd5b50610131600480360381019061012c9190610d3a565b610770565b60405161013e9190610d82565b60405180910390f35b34801561015357600080fd5b5061015c610904565b6040516101699190610dbe565b60405180910390f35b34801561017e57600080fd5b5061018761092a565b6040516101949190610e72565b60405180910390f35b3480156101a957600080fd5b506101b26109b8565b6040516101bf9190610dbe565b60405180910390f35b3480156101d457600080fd5b506101ef60048036038101906101ea9190610d3a565b6109de565b6040516101ff9493929190610ea3565b60405180910390f35b34801561021457600080fd5b5061021d610a3b565b60405161022a9190610cf3565b60405180910390f35b34801561023f57600080fd5b50610248610a41565b6040516102559190611019565b60405180910390f35b34801561026a57600080fd5b50610273610bba565b604051610280919061103b565b60405180910390f35b34801561029557600080fd5b5061029e610be0565b6040516102ab9190610cf3565b60405180910390f35b600160009054906101000a900473ffffffffffffffffffffffffffffffffffffffff1673ffffffffffffffffffffffffffffffffffffffff163373ffffffffffffffffffffffffffffffffffffffff161415610345576040517f08c379a000000000000000000000000000000000000000000000000000000000815260040161033c906110a2565b60405180910390fd5b60035442111561038a576040517f08c379a00000000000000000000000000000000000000000000000000000000081526004016103819061110e565b60405180910390fd5b60065434116103ce576040517f08c379a00000000000000000000000000000000000000000000000000000000081526004016103c5906111a0565b60405180910390fd5b6000600654146104535760065460076000600560009054906101000a900473ffffffffffffffffffffffffffffffffffffffff1673ffffffffffffffffffffffffffffffffffffffff1673ffffffffffffffffffffffffffffffffffffffff168152602001908152602001600020600082825461044b91906111ef565b925050819055505b33600560006101000a81548173ffffffffffffffffffffffffffffffffffffffff021916908373ffffffffffffffffffffffffffffffffffffffff160217905550346006819055506104a56000610be6565b60006104b16000610bfc565b90506040518060800160405280828152602001600560009054906101000a900473ffffffffffffffffffffffffffffffffffffffff1673ffffffffffffffffffffffffffffffffffffffff168152602001600654815260200160001515815250600860008381526020019081526020016000206000820151816000015560208201518160010160006101000a81548173ffffffffffffffffffffffffffffffffffffffff021916908373ffffffffffffffffffffffffffffffffffffffff1602179055506040820151816002015560608201518160030160006101000a81548160ff0219169083151502179055509050507f123a2a99bd109b51e435e65e10a7230bdbd13b8a0fa2f7ee4ef740da1f86f0eb33346040516105d3929190611245565b60405180910390a150565b60076020528060005260406000206000915090505481565b60035442101561063b576040517f08c379a0000000000000000000000000000000000000000000000000000000008152600401610632906112ba565b60405180910390fd5b600960009054906101000a900460ff161561068b576040517f08c379a00000000000000000000000000000000000000000000000000000000081526004016106829061134c565b60405180910390fd5b6001600960006101000a81548160ff0219169083151502179055507fdaec4582d5d9595688c8c98545fdd1c696d41c6aeaeb636737e84ed2f5c00eda600560009054906101000a900473ffffffffffffffffffffffffffffffffffffffff166006546040516106fb929190611245565b60405180910390a1600160009054906101000a900473ffffffffffffffffffffffffffffffffffffffff1673ffffffffffffffffffffffffffffffffffffffff166108fc6006549081150290604051600060405180830381858888f1935050505015801561076d573d6000803e3d6000fd5b50565b600080600760003373ffffffffffffffffffffffffffffffffffffffff1673ffffffffffffffffffffffffffffffffffffffff1681526020019081526020016000205490506000811115610837576000600760003373ffffffffffffffffffffffffffffffffffffffff1673ffffffffffffffffffffffffffffffffffffffff1681526020019081526020016000208190555060016008600085815260200190815260200160002060030160006101000a81548160ff021916908315150217905550610872565b6040517f08c379a0000000000000000000000000000000000000000000000000000000008152600401610869906113b8565b60405180910390fd5b3373ffffffffffffffffffffffffffffffffffffffff166108fc829081150290604051600060405180830381858888f193505050506108f95780600760003373ffffffffffffffffffffffffffffffffffffffff1673ffffffffffffffffffffffffffffffffffffffff1681526020019081526020016000208190555060009150506108ff565b60019150505b919050565b600160009054906101000a900473ffffffffffffffffffffffffffffffffffffffff1681565b6004805461093790611407565b80601f016020809104026020016040519081016040528092919081815260200182805461096390611407565b80156109b05780601f10610985576101008083540402835291602001916109b0565b820191906000526020600020905b81548152906001019060200180831161099357829003601f168201915b505050505081565b600260009054906101000a900473ffffffffffffffffffffffffffffffffffffffff1681565b60086020528060005260406000206000915090508060000154908060010160009054906101000a900473ffffffffffffffffffffffffffffffffffffffff16908060020154908060030160009054906101000a900460ff16905084565b60035481565b60606000610a4f6000610bfc565b905060008167ffffffffffffffff811115610a6d57610a6c611439565b5b604051908082528060200260200182016040528015610aa657816020015b610a93610c0a565b815260200190600190039081610a8b5790505b5090506000805b83811015610bb0576000600182610ac491906111ef565b9050600060086000838152602001908152602001600020905080604051806080016040529081600082015481526020016001820160009054906101000a900473ffffffffffffffffffffffffffffffffffffffff1673ffffffffffffffffffffffffffffffffffffffff1673ffffffffffffffffffffffffffffffffffffffff168152602001600282015481526020016003820160009054906101000a900460ff161515151581525050858581518110610b8157610b80611468565b5b6020026020010181905250600184610b9991906111ef565b935050508080610ba890611497565b915050610aad565b5081935050505090565b600560009054906101000a900473ffffffffffffffffffffffffffffffffffffffff1681565b60065481565b6001816000016000828254019250508190555050565b600081600001549050919050565b604051806080016040528060008152602001600073ffffffffffffffffffffffffffffffffffffffff168152602001600081526020016000151581525090565b600080fd5b600073ffffffffffffffffffffffffffffffffffffffff82169050919050565b6000610c7a82610c4f565b9050919050565b610c8a81610c6f565b8114610c9557600080fd5b50565b600081359050610ca781610c81565b92915050565b600060208284031215610cc357610cc2610c4a565b5b6000610cd184828501610c98565b91505092915050565b6000819050919050565b610ced81610cda565b82525050565b6000602082019050610d086000830184610ce4565b92915050565b610d1781610cda565b8114610d2257600080fd5b50565b600081359050610d3481610d0e565b92915050565b600060208284031215610d5057610d4f610c4a565b5b6000610d5e84828501610d25565b91505092915050565b60008115159050919050565b610d7c81610d67565b82525050565b6000602082019050610d976000830184610d73565b92915050565b6000610da882610c4f565b9050919050565b610db881610d9d565b82525050565b6000602082019050610dd36000830184610daf565b92915050565b600081519050919050565b600082825260208201905092915050565b60005b83811015610e13578082015181840152602081019050610df8565b83811115610e22576000848401525b50505050565b6000601f19601f8301169050919050565b6000610e4482610dd9565b610e4e8185610de4565b9350610e5e818560208601610df5565b610e6781610e28565b840191505092915050565b60006020820190508181036000830152610e8c8184610e39565b905092915050565b610e9d81610c6f565b82525050565b6000608082019050610eb86000830187610ce4565b610ec56020830186610e94565b610ed26040830185610ce4565b610edf6060830184610d73565b95945050505050565b600081519050919050565b600082825260208201905092915050565b6000819050602082019050919050565b610f1d81610cda565b82525050565b610f2c81610c6f565b82525050565b610f3b81610d67565b82525050565b608082016000820151610f576000850182610f14565b506020820151610f6a6020850182610f23565b506040820151610f7d6040850182610f14565b506060820151610f906060850182610f32565b50505050565b6000610fa28383610f41565b60808301905092915050565b6000602082019050919050565b6000610fc682610ee8565b610fd08185610ef3565b9350610fdb83610f04565b8060005b8381101561100c578151610ff38882610f96565b9750610ffe83610fae565b925050600181019050610fdf565b5085935050505092915050565b600060208201905081810360008301526110338184610fbb565b905092915050565b60006020820190506110506000830184610e94565b92915050565b7f4f776e65722063616e6e6f74206269642e000000000000000000000000000000600082015250565b600061108c601183610de4565b915061109782611056565b602082019050919050565b600060208201905081810360008301526110bb8161107f565b9050919050565b7f5468652061756374696f6e2068617320616c726561647920656e6465642e0000600082015250565b60006110f8601e83610de4565b9150611103826110c2565b602082019050919050565b60006020820190508181036000830152611127816110eb565b9050919050565b7f546865726520697320616c7265616479206120686967686572206f722065717560008201527f616c206269642e00000000000000000000000000000000000000000000000000602082015250565b600061118a602783610de4565b91506111958261112e565b604082019050919050565b600060208201905081810360008301526111b98161117d565b9050919050565b7f4e487b7100000000000000000000000000000000000000000000000000000000600052601160045260246000fd5b60006111fa82610cda565b915061120583610cda565b9250827fffffffffffffffffffffffffffffffffffffffffffffffffffffffffffffffff0382111561123a576112396111c0565b5b828201905092915050565b600060408201905061125a6000830185610e94565b6112676020830184610ce4565b9392505050565b7f41756374696f6e20686173206e6f7420656e646564207965742e000000000000600082015250565b60006112a4601a83610de4565b91506112af8261126e565b602082019050919050565b600060208201905081810360008301526112d381611297565b9050919050565b7f41756374696f6e2068617320616c726561647920656e6465642c20617563746960008201527f6f6e20656e6465642063616c6c656420616c72656164792e0000000000000000602082015250565b6000611336603883610de4565b9150611341826112da565b604082019050919050565b6000602082019050818103600083015261136581611329565b9050919050565b7f4e6f2070656e64696e672072657475726e732e00000000000000000000000000600082015250565b60006113a2601383610de4565b91506113ad8261136c565b602082019050919050565b600060208201905081810360008301526113d181611395565b9050919050565b7f4e487b7100000000000000000000000000000000000000000000000000000000600052602260045260246000fd5b6000600282049050600182168061141f57607f821691505b60208210811415611433576114326113d8565b5b50919050565b7f4e487b7100000000000000000000000000000000000000000000000000000000600052604160045260246000fd5b7f4e487b7100000000000000000000000000000000000000000000000000000000600052603260045260246000fd5b60006114a282610cda565b91507fffffffffffffffffffffffffffffffffffffffffffffffffffffffffffffffff8214156114d5576114d46111c0565b5b60018201905091905056fea26469706673582212203fbb610dfbd44d7a752019d1887522ca7e4481abbbdd811034328ec8467794c564736f6c634300080a0033",
  "immutableReferences": {},
  "source": "pragma solidity ^0.8.10;\n\nimport \"@openzeppelin/contracts/utils/Counters.sol\";\n\ncontract NFTAuction {\n    using Counters for Counters.Counter;\n    Counters.Counter private totalReturns;\n\n    address payable public beneficiary;\n    address payable public artist;\n    uint public auctionEndTime;\n    string public auctionEndDate;\n\n\n    address public highestBidder;\n    uint public highestBid;\n\n    mapping(address => uint) public pendingReturns;\n    mapping(uint => Bid) public bids;\n\n\n    bool ended = false;\n\n    event highestBidIncrease(address bidder, uint amount);\n    event AuctionEnded(address winner, uint amount);\n\n    struct Bid{uint id; address bidder; uint amount; bool withdrawn;}\n\n    constructor(uint _biddingTime, string memory _auctionEndDate, address payable _beneficiary, address payable _artist) {\n      beneficiary = _beneficiary;\n      artist = _artist;\n      auctionEndTime = block.timestamp + _biddingTime;\n      auctionEndDate = _auctionEndDate;\n    }\n\n    modifier onlyNotOwner {\n    if (msg.sender == beneficiary) {\n      revert(\"Owner cannot bid.\");\n    }\n    _;\n    }\n\n    function getAllBids() public view returns (Bid[] memory) {\n      uint itemCount = totalReturns.current();\n      Bid[] memory items = new Bid[](itemCount);\n      uint currentIndex = 0;\n\n      for (uint i = 0; i < itemCount; i++) {\n        uint currentId = i + 1;\n        Bid storage currentItem = bids[currentId];\n        items[currentIndex] = currentItem;\n        currentIndex += 1;\n    }\n    return items;\n    }\n\n    function bid() onlyNotOwner public payable {\n      if(block.timestamp > auctionEndTime) {\n        revert(\"The auction has already ended.\");\n      }\n      if(msg.value <= highestBid) {\n        revert(\"There is already a higher or equal bid.\");\n      }\n      if(highestBid != 0) {\n        pendingReturns[highestBidder] += highestBid;\n      }\n      highestBidder = msg.sender;\n      highestBid = msg.value;\n      totalReturns.increment();\n      uint256 bidId = totalReturns.current();\n      bids[bidId] = Bid(bidId, highestBidder, highestBid, false);\n      emit highestBidIncrease(msg.sender, msg.value);\n    }\n\n\n    function withdraw(uint _bidId) public returns (bool) {\n      uint amount = pendingReturns[msg.sender];\n      if(amount > 0) {\n        pendingReturns[msg.sender] = 0;\n        bids[_bidId].withdrawn = true;\n      } else {\n        revert(\"No pending returns.\");\n      }\n\n      if(!payable(msg.sender).send(amount)) {\n        pendingReturns[msg.sender] = amount;\n        return false;\n      }\n      return true;\n    }\n    function auctionEnd() public {\n      if(block.timestamp < auctionEndTime) {\n        revert(\"Auction has not ended yet.\");\n      }\n      if(ended) {\n        revert(\"Auction has already ended, auction ended called already.\");\n      }\n      ended = true;\n      emit AuctionEnded(highestBidder, highestBid);\n      beneficiary.transfer(highestBid);\n    }\n\n}",
  "sourcePath": "/Users/apple/Documents/blockchain/superway-bsc/contracts/NFTAuction.sol",
  "compiler": {
    "name": "solc",
    "version": "0.8.10+commit.fc410830.Emscripten.clang"
  },
  "schemaVersion": "3.4.4",
  "updatedAt": "2022-02-23T08:11:05.913Z",
  "devdoc": {
    "kind": "dev",
    "methods": {},
    "version": 1
  },
  "userdoc": {
    "kind": "user",
    "methods": {},
    "version": 1
  }
}