{
  "contractName": "NFTCollections",
  "abi": [
    {
      "inputs": [],
      "stateMutability": "nonpayable",
      "type": "constructor"
    },
    {
      "inputs": [
        {
          "internalType": "string",
          "name": "_name",
          "type": "string"
        },
        {
          "internalType": "string",
          "name": "_imageUrl",
          "type": "string"
        },
        {
          "internalType": "string",
          "name": "_coverUrl",
          "type": "string"
        }
      ],
      "name": "createCollection",
      "outputs": [],
      "stateMutability": "nonpayable",
      "type": "function"
    },
    {
      "inputs": [],
      "name": "getAllCollections",
      "outputs": [
        {
          "components": [
            {
              "internalType": "uint256",
              "name": "itemId",
              "type": "uint256"
            },
            {
              "internalType": "address",
              "name": "collectionAddress",
              "type": "address"
            },
            {
              "internalType": "address",
              "name": "collectionOwner",
              "type": "address"
            }
          ],
          "internalType": "struct NFTCollections.Collection[]",
          "name": "",
          "type": "tuple[]"
        }
      ],
      "stateMutability": "view",
      "type": "function",
      "constant": true
    },
    {
      "inputs": [
        {
          "internalType": "uint256",
          "name": "_id",
          "type": "uint256"
        }
      ],
      "name": "getCollectionByAddress",
      "outputs": [
        {
          "components": [
            {
              "internalType": "uint256",
              "name": "itemId",
              "type": "uint256"
            },
            {
              "internalType": "address",
              "name": "collectionAddress",
              "type": "address"
            },
            {
              "internalType": "address",
              "name": "collectionOwner",
              "type": "address"
            }
          ],
          "internalType": "struct NFTCollections.Collection",
          "name": "",
          "type": "tuple"
        }
      ],
      "stateMutability": "view",
      "type": "function",
      "constant": true
    },
    {
      "inputs": [
        {
          "internalType": "address",
          "name": "_owner",
          "type": "address"
        }
      ],
      "name": "getCollectionByOwnerAddress",
      "outputs": [
        {
          "components": [
            {
              "internalType": "uint256",
              "name": "itemId",
              "type": "uint256"
            },
            {
              "internalType": "address",
              "name": "collectionAddress",
              "type": "address"
            },
            {
              "internalType": "address",
              "name": "collectionOwner",
              "type": "address"
            }
          ],
          "internalType": "struct NFTCollections.Collection[]",
          "name": "",
          "type": "tuple[]"
        }
      ],
      "stateMutability": "view",
      "type": "function",
      "constant": true
    }
  ],
  "bytecode": "0x608060405234801561001057600080fd5b50600160008190555033600260006101000a81548173ffffffffffffffffffffffffffffffffffffffff021916908373ffffffffffffffffffffffffffffffffffffffff160217905550611714806100696000396000f3fe60806040523480156200001157600080fd5b5060043610620000525760003560e01c8063342ac4e114620000575780636804a958146200008d5780638f9d868514620000af578063ece86c2114620000e5575b600080fd5b6200007560048036038101906200006f9190620008ba565b62000105565b6040516200008491906200098a565b60405180910390f35b62000097620001ea565b604051620000a6919062000aac565b60405180910390f35b620000cd6004803603810190620000c7919062000b01565b620003a8565b604051620000dc919062000aac565b60405180910390f35b620001036004803603810190620000fd919062000c95565b62000693565b005b6200010f62000810565b60036000838152602001908152602001600020604051806060016040529081600082015481526020016001820160009054906101000a900473ffffffffffffffffffffffffffffffffffffffff1673ffffffffffffffffffffffffffffffffffffffff1673ffffffffffffffffffffffffffffffffffffffff1681526020016002820160009054906101000a900473ffffffffffffffffffffffffffffffffffffffff1673ffffffffffffffffffffffffffffffffffffffff1673ffffffffffffffffffffffffffffffffffffffff16815250509050919050565b60606000620001fa6001620007ec565b90506000808267ffffffffffffffff8111156200021c576200021b62000b4e565b5b6040519080825280602002602001820160405280156200025957816020015b6200024562000810565b8152602001906001900390816200023b5790505b50905060005b838110156200039e57600060018262000279919062000d7d565b9050600060036000838152602001908152602001600020905080604051806060016040529081600082015481526020016001820160009054906101000a900473ffffffffffffffffffffffffffffffffffffffff1673ffffffffffffffffffffffffffffffffffffffff1673ffffffffffffffffffffffffffffffffffffffff1681526020016002820160009054906101000a900473ffffffffffffffffffffffffffffffffffffffff1673ffffffffffffffffffffffffffffffffffffffff1673ffffffffffffffffffffffffffffffffffffffff16815250508486815181106200036a576200036962000dda565b5b602002602001018190525060018562000384919062000d7d565b945050508080620003959062000e09565b9150506200025f565b5080935050505090565b60606000620003b86001620007ec565b905060008060005b838110156200046a578573ffffffffffffffffffffffffffffffffffffffff1660036000600184620003f3919062000d7d565b815260200190815260200160002060020160009054906101000a900473ffffffffffffffffffffffffffffffffffffffff1673ffffffffffffffffffffffffffffffffffffffff161415620004545760018362000451919062000d7d565b92505b8080620004619062000e09565b915050620003c0565b5060008267ffffffffffffffff8111156200048a576200048962000b4e565b5b604051908082528060200260200182016040528015620004c757816020015b620004b362000810565b815260200190600190039081620004a95790505b50905060005b8481101562000686578673ffffffffffffffffffffffffffffffffffffffff166003600060018462000500919062000d7d565b815260200190815260200160002060020160009054906101000a900473ffffffffffffffffffffffffffffffffffffffff1673ffffffffffffffffffffffffffffffffffffffff1614156200067057600060018262000560919062000d7d565b9050600060036000838152602001908152602001600020905080604051806060016040529081600082015481526020016001820160009054906101000a900473ffffffffffffffffffffffffffffffffffffffff1673ffffffffffffffffffffffffffffffffffffffff1673ffffffffffffffffffffffffffffffffffffffff1681526020016002820160009054906101000a900473ffffffffffffffffffffffffffffffffffffffff1673ffffffffffffffffffffffffffffffffffffffff1673ffffffffffffffffffffffffffffffffffffffff168152505084868151811062000651576200065062000dda565b5b60200260200101819052506001856200066b919062000d7d565b945050505b80806200067d9062000e09565b915050620004cd565b5080945050505050919050565b6200069f6001620007fa565b6000620006ad6001620007ec565b90506000848484604051620006c2906200085d565b620006d09392919062000eea565b604051809103906000f080158015620006ed573d6000803e3d6000fd5b50905060405180606001604052808381526020018273ffffffffffffffffffffffffffffffffffffffff1681526020013373ffffffffffffffffffffffffffffffffffffffff16815250600360008481526020019081526020016000206000820151816000015560208201518160010160006101000a81548173ffffffffffffffffffffffffffffffffffffffff021916908373ffffffffffffffffffffffffffffffffffffffff16021790555060408201518160020160006101000a81548173ffffffffffffffffffffffffffffffffffffffff021916908373ffffffffffffffffffffffffffffffffffffffff1602179055509050505050505050565b600081600001549050919050565b6001816000016000828254019250508190555050565b604051806060016040528060008152602001600073ffffffffffffffffffffffffffffffffffffffff168152602001600073ffffffffffffffffffffffffffffffffffffffff1681525090565b6107a28062000f3d83390190565b6000604051905090565b600080fd5b600080fd5b6000819050919050565b62000894816200087f565b8114620008a057600080fd5b50565b600081359050620008b48162000889565b92915050565b600060208284031215620008d357620008d262000875565b5b6000620008e384828501620008a3565b91505092915050565b620008f7816200087f565b82525050565b600073ffffffffffffffffffffffffffffffffffffffff82169050919050565b60006200092a82620008fd565b9050919050565b6200093c816200091d565b82525050565b6060820160008201516200095a6000850182620008ec565b5060208201516200096f602085018262000931565b50604082015162000984604085018262000931565b50505050565b6000606082019050620009a1600083018462000942565b92915050565b600081519050919050565b600082825260208201905092915050565b6000819050602082019050919050565b606082016000820151620009eb6000850182620008ec565b50602082015162000a00602085018262000931565b50604082015162000a15604085018262000931565b50505050565b600062000a298383620009d3565b60608301905092915050565b6000602082019050919050565b600062000a4f82620009a7565b62000a5b8185620009b2565b935062000a6883620009c3565b8060005b8381101562000a9f57815162000a83888262000a1b565b975062000a908362000a35565b92505060018101905062000a6c565b5085935050505092915050565b6000602082019050818103600083015262000ac8818462000a42565b905092915050565b62000adb816200091d565b811462000ae757600080fd5b50565b60008135905062000afb8162000ad0565b92915050565b60006020828403121562000b1a5762000b1962000875565b5b600062000b2a8482850162000aea565b91505092915050565b600080fd5b600080fd5b6000601f19601f8301169050919050565b7f4e487b7100000000000000000000000000000000000000000000000000000000600052604160045260246000fd5b62000b888262000b3d565b810181811067ffffffffffffffff8211171562000baa5762000ba962000b4e565b5b80604052505050565b600062000bbf6200086b565b905062000bcd828262000b7d565b919050565b600067ffffffffffffffff82111562000bf05762000bef62000b4e565b5b62000bfb8262000b3d565b9050602081019050919050565b82818337600083830152505050565b600062000c2e62000c288462000bd2565b62000bb3565b90508281526020810184848401111562000c4d5762000c4c62000b38565b5b62000c5a84828562000c08565b509392505050565b600082601f83011262000c7a5762000c7962000b33565b5b813562000c8c84826020860162000c17565b91505092915050565b60008060006060848603121562000cb15762000cb062000875565b5b600084013567ffffffffffffffff81111562000cd25762000cd16200087a565b5b62000ce08682870162000c62565b935050602084013567ffffffffffffffff81111562000d045762000d036200087a565b5b62000d128682870162000c62565b925050604084013567ffffffffffffffff81111562000d365762000d356200087a565b5b62000d448682870162000c62565b9150509250925092565b7f4e487b7100000000000000000000000000000000000000000000000000000000600052601160045260246000fd5b600062000d8a826200087f565b915062000d97836200087f565b9250827fffffffffffffffffffffffffffffffffffffffffffffffffffffffffffffffff0382111562000dcf5762000dce62000d4e565b5b828201905092915050565b7f4e487b7100000000000000000000000000000000000000000000000000000000600052603260045260246000fd5b600062000e16826200087f565b91507fffffffffffffffffffffffffffffffffffffffffffffffffffffffffffffffff82141562000e4c5762000e4b62000d4e565b5b600182019050919050565b600081519050919050565b600082825260208201905092915050565b60005b8381101562000e9357808201518184015260208101905062000e76565b8381111562000ea3576000848401525b50505050565b600062000eb68262000e57565b62000ec2818562000e62565b935062000ed481856020860162000e73565b62000edf8162000b3d565b840191505092915050565b6000606082019050818103600083015262000f06818662000ea9565b9050818103602083015262000f1c818562000ea9565b9050818103604083015262000f32818462000ea9565b905094935050505056fe60806040523480156200001157600080fd5b50604051620007a2380380620007a28339818101604052810190620000379190620002d8565b82600290805190602001906200004f9291906200008b565b508160009080519060200190620000689291906200008b565b508060019080519060200190620000819291906200008b565b50505050620003f6565b8280546200009990620003c0565b90600052602060002090601f016020900481019282620000bd576000855562000109565b82601f10620000d857805160ff191683800117855562000109565b8280016001018555821562000109579182015b8281111562000108578251825591602001919060010190620000eb565b5b5090506200011891906200011c565b5090565b5b80821115620001375760008160009055506001016200011d565b5090565b6000604051905090565b600080fd5b600080fd5b600080fd5b600080fd5b6000601f19601f8301169050919050565b7f4e487b7100000000000000000000000000000000000000000000000000000000600052604160045260246000fd5b620001a48262000159565b810181811067ffffffffffffffff82111715620001c657620001c56200016a565b5b80604052505050565b6000620001db6200013b565b9050620001e9828262000199565b919050565b600067ffffffffffffffff8211156200020c576200020b6200016a565b5b620002178262000159565b9050602081019050919050565b60005b838110156200024457808201518184015260208101905062000227565b8381111562000254576000848401525b50505050565b6000620002716200026b84620001ee565b620001cf565b90508281526020810184848401111562000290576200028f62000154565b5b6200029d84828562000224565b509392505050565b600082601f830112620002bd57620002bc6200014f565b5b8151620002cf8482602086016200025a565b91505092915050565b600080600060608486031215620002f457620002f362000145565b5b600084015167ffffffffffffffff8111156200031557620003146200014a565b5b6200032386828701620002a5565b935050602084015167ffffffffffffffff8111156200034757620003466200014a565b5b6200035586828701620002a5565b925050604084015167ffffffffffffffff8111156200037957620003786200014a565b5b6200038786828701620002a5565b9150509250925092565b7f4e487b7100000000000000000000000000000000000000000000000000000000600052602260045260246000fd5b60006002820490506001821680620003d957607f821691505b60208210811415620003f057620003ef62000391565b5b50919050565b61039c80620004066000396000f3fe608060405234801561001057600080fd5b50600436106100415760003560e01c806306fdde03146100465780634e45cca114610064578063aba8315014610082575b600080fd5b61004e6100a0565b60405161005b91906102e3565b60405180910390f35b61006c61012e565b60405161007991906102e3565b60405180910390f35b61008a6101bc565b60405161009791906102e3565b60405180910390f35b600280546100ad90610334565b80601f01602080910402602001604051908101604052809291908181526020018280546100d990610334565b80156101265780601f106100fb57610100808354040283529160200191610126565b820191906000526020600020905b81548152906001019060200180831161010957829003601f168201915b505050505081565b6001805461013b90610334565b80601f016020809104026020016040519081016040528092919081815260200182805461016790610334565b80156101b45780601f10610189576101008083540402835291602001916101b4565b820191906000526020600020905b81548152906001019060200180831161019757829003601f168201915b505050505081565b600080546101c990610334565b80601f01602080910402602001604051908101604052809291908181526020018280546101f590610334565b80156102425780601f1061021757610100808354040283529160200191610242565b820191906000526020600020905b81548152906001019060200180831161022557829003601f168201915b505050505081565b600081519050919050565b600082825260208201905092915050565b60005b83811015610284578082015181840152602081019050610269565b83811115610293576000848401525b50505050565b6000601f19601f8301169050919050565b60006102b58261024a565b6102bf8185610255565b93506102cf818560208601610266565b6102d881610299565b840191505092915050565b600060208201905081810360008301526102fd81846102aa565b905092915050565b7f4e487b7100000000000000000000000000000000000000000000000000000000600052602260045260246000fd5b6000600282049050600182168061034c57607f821691505b602082108114156103605761035f610305565b5b5091905056fea26469706673582212207e3a821bc0e591a5b51a733950ec1d85fb354554f776b86d3193c9025738039464736f6c634300080a0033a2646970667358221220bcef21e1dc65e813273f33c266aae4feb2f54fc38c60bbd0cc4d503101becb1264736f6c634300080a0033",
  "immutableReferences": {},
  "source": "pragma solidity ^0.8.10;\n\nimport \"@openzeppelin/contracts/utils/Counters.sol\";\nimport \"@openzeppelin/contracts/security/ReentrancyGuard.sol\";\nimport \"./NFTSingleCollection.sol\";\n\ncontract NFTCollections is ReentrancyGuard {\n    using Counters for Counters.Counter;\n    Counters.Counter private _itemIds;\n\n    address payable owner;\n\n    constructor() {\n        owner = payable(msg.sender);\n    }\n\n    struct Collection {\n        uint256 itemId;\n        address collectionAddress;\n        address collectionOwner;\n    }\n\n    mapping(uint256 => Collection) private idToCollectionItem;\n\n    function createCollection(string memory _name, string memory _imageUrl, string memory _coverUrl) public {\n        _itemIds.increment();\n        uint256 itemId = _itemIds.current();\n        NFTSingleCollection newCollectionItem = new NFTSingleCollection(\n            _name,\n            _imageUrl,\n            _coverUrl\n        );\n        idToCollectionItem[itemId] = Collection(itemId, address(newCollectionItem), msg.sender);\n    }\n\n    function getAllCollections() public view returns (Collection[] memory)  {\n        uint256 itemCount = _itemIds.current();\n        uint256 currentIndex = 0;\n\n        Collection[] memory items = new Collection[](itemCount);\n        for (uint256 i = 0; i < itemCount; i++) {\n            uint256 currentId = i + 1;\n            Collection storage currentItem = idToCollectionItem[currentId];\n            items[currentIndex] = currentItem;\n            currentIndex += 1;\n        }\n        return items;\n    }\n\n    /* get collection by address id */\n    function getCollectionByAddress(uint256 _id) public view returns (Collection memory) {\n        return idToCollectionItem[_id];\n    }\n\n    /* get collection by address id */\n    function getCollectionByOwnerAddress(address _owner) public view returns (Collection[] memory) {\n        uint256 totalItemCount = _itemIds.current();\n        uint ownerCollectionCount = 0;\n        uint256 currentIndex = 0;\n\n        for (uint256 i = 0; i < totalItemCount; i++) {\n            if (idToCollectionItem[i + 1].collectionOwner == _owner) {\n                ownerCollectionCount += 1;\n            }\n        }\n        Collection[] memory items = new Collection[](ownerCollectionCount);\n        for (uint256 i = 0; i < totalItemCount; i++) {\n            if (idToCollectionItem[i + 1].collectionOwner == _owner) {\n                uint256 currentId = i + 1;\n                Collection storage currentItem = idToCollectionItem[currentId];\n                items[currentIndex] = currentItem;\n                currentIndex += 1;\n            }\n        }\n        return items;\n    }\n\n}\n",
  "sourcePath": "/Users/apple/Documents/blockchain/superway-bsc/contracts/NFTCollections.sol",
  "compiler": {
    "name": "solc",
    "version": "0.8.10+commit.fc410830.Emscripten.clang"
  },
  "schemaVersion": "3.4.4",
  "updatedAt": "2022-03-14T09:32:12.816Z",
  "networkType": "ethereum",
  "devdoc": {
    "kind": "dev",
    "methods": {},
    "version": 1
  },
  "userdoc": {
    "kind": "user",
    "methods": {},
    "version": 1
  }
}