{
  "contractName": "NFTMarket",
  "abi": [
    {
      "inputs": [],
      "stateMutability": "nonpayable",
      "type": "constructor"
    },
    {
      "anonymous": false,
      "inputs": [
        {
          "indexed": true,
          "internalType": "uint256",
          "name": "itemId",
          "type": "uint256"
        },
        {
          "indexed": true,
          "internalType": "address",
          "name": "nftContract",
          "type": "address"
        },
        {
          "indexed": true,
          "internalType": "uint256",
          "name": "tokenId",
          "type": "uint256"
        },
        {
          "indexed": false,
          "internalType": "address",
          "name": "seller",
          "type": "address"
        },
        {
          "indexed": false,
          "internalType": "address",
          "name": "owner",
          "type": "address"
        },
        {
          "indexed": false,
          "internalType": "uint256",
          "name": "price",
          "type": "uint256"
        },
        {
          "indexed": false,
          "internalType": "bool",
          "name": "sold",
          "type": "bool"
        }
      ],
      "name": "MarketItemCreated",
      "type": "event"
    },
    {
      "inputs": [
        {
          "internalType": "uint256",
          "name": "_price",
          "type": "uint256"
        }
      ],
      "name": "getListingPriceByItemPrice",
      "outputs": [
        {
          "internalType": "uint256",
          "name": "",
          "type": "uint256"
        }
      ],
      "stateMutability": "pure",
      "type": "function",
      "constant": true
    },
    {
      "inputs": [],
      "name": "getListingPrice",
      "outputs": [
        {
          "internalType": "uint256",
          "name": "",
          "type": "uint256"
        }
      ],
      "stateMutability": "view",
      "type": "function",
      "constant": true
    },
    {
      "inputs": [
        {
          "internalType": "address",
          "name": "nftContract",
          "type": "address"
        },
        {
          "internalType": "uint256",
          "name": "tokenId",
          "type": "uint256"
        },
        {
          "internalType": "uint256",
          "name": "price",
          "type": "uint256"
        },
        {
          "internalType": "bool",
          "name": "_isAuction",
          "type": "bool"
        },
        {
          "internalType": "uint256",
          "name": "_biddingTime",
          "type": "uint256"
        },
        {
          "internalType": "string",
          "name": "_auctionEndDate",
          "type": "string"
        },
        {
          "internalType": "string",
          "name": "_category",
          "type": "string"
        },
        {
          "internalType": "address",
          "name": "_collectionAddress",
          "type": "address"
        }
      ],
      "name": "createMarketItem",
      "outputs": [],
      "stateMutability": "payable",
      "type": "function",
      "payable": true
    },
    {
      "inputs": [
        {
          "internalType": "address",
          "name": "nftContract",
          "type": "address"
        },
        {
          "internalType": "uint256",
          "name": "itemId",
          "type": "uint256"
        },
        {
          "internalType": "uint256",
          "name": "price",
          "type": "uint256"
        },
        {
          "internalType": "bool",
          "name": "_isAuction",
          "type": "bool"
        },
        {
          "internalType": "uint256",
          "name": "_biddingTime",
          "type": "uint256"
        },
        {
          "internalType": "string",
          "name": "_auctionEndDate",
          "type": "string"
        }
      ],
      "name": "resaleBoughtItem",
      "outputs": [],
      "stateMutability": "payable",
      "type": "function",
      "payable": true
    },
    {
      "inputs": [
        {
          "internalType": "address",
          "name": "nftContract",
          "type": "address"
        },
        {
          "internalType": "uint256",
          "name": "itemId",
          "type": "uint256"
        }
      ],
      "name": "createMarketSale",
      "outputs": [],
      "stateMutability": "payable",
      "type": "function",
      "payable": true
    },
    {
      "inputs": [
        {
          "internalType": "address",
          "name": "nftContract",
          "type": "address"
        },
        {
          "internalType": "uint256",
          "name": "_itemId",
          "type": "uint256"
        },
        {
          "internalType": "address",
          "name": "_buyer",
          "type": "address"
        }
      ],
      "name": "transferAsset",
      "outputs": [
        {
          "internalType": "bool",
          "name": "",
          "type": "bool"
        }
      ],
      "stateMutability": "nonpayable",
      "type": "function"
    },
    {
      "inputs": [],
      "name": "fetchMarketItems",
      "outputs": [
        {
          "components": [
            {
              "internalType": "uint256",
              "name": "itemId",
              "type": "uint256"
            },
            {
              "internalType": "address",
              "name": "nftContract",
              "type": "address"
            },
            {
              "internalType": "uint256",
              "name": "tokenId",
              "type": "uint256"
            },
            {
              "internalType": "address payable",
              "name": "seller",
              "type": "address"
            },
            {
              "internalType": "address payable",
              "name": "owner",
              "type": "address"
            },
            {
              "internalType": "uint256",
              "name": "price",
              "type": "uint256"
            },
            {
              "internalType": "bool",
              "name": "sold",
              "type": "bool"
            },
            {
              "internalType": "address",
              "name": "auction",
              "type": "address"
            },
            {
              "internalType": "string",
              "name": "category",
              "type": "string"
            },
            {
              "internalType": "address payable",
              "name": "artist",
              "type": "address"
            },
            {
              "internalType": "address",
              "name": "collectionAddress",
              "type": "address"
            }
          ],
          "internalType": "struct NFTMarket.MarketItem[]",
          "name": "",
          "type": "tuple[]"
        }
      ],
      "stateMutability": "view",
      "type": "function",
      "constant": true
    },
    {
      "inputs": [],
      "name": "fetchMyNFTs",
      "outputs": [
        {
          "components": [
            {
              "internalType": "uint256",
              "name": "itemId",
              "type": "uint256"
            },
            {
              "internalType": "address",
              "name": "nftContract",
              "type": "address"
            },
            {
              "internalType": "uint256",
              "name": "tokenId",
              "type": "uint256"
            },
            {
              "internalType": "address payable",
              "name": "seller",
              "type": "address"
            },
            {
              "internalType": "address payable",
              "name": "owner",
              "type": "address"
            },
            {
              "internalType": "uint256",
              "name": "price",
              "type": "uint256"
            },
            {
              "internalType": "bool",
              "name": "sold",
              "type": "bool"
            },
            {
              "internalType": "address",
              "name": "auction",
              "type": "address"
            },
            {
              "internalType": "string",
              "name": "category",
              "type": "string"
            },
            {
              "internalType": "address payable",
              "name": "artist",
              "type": "address"
            },
            {
              "internalType": "address",
              "name": "collectionAddress",
              "type": "address"
            }
          ],
          "internalType": "struct NFTMarket.MarketItem[]",
          "name": "",
          "type": "tuple[]"
        }
      ],
      "stateMutability": "view",
      "type": "function",
      "constant": true
    },
    {
      "inputs": [],
      "name": "fetchItemsCreated",
      "outputs": [
        {
          "components": [
            {
              "internalType": "uint256",
              "name": "itemId",
              "type": "uint256"
            },
            {
              "internalType": "address",
              "name": "nftContract",
              "type": "address"
            },
            {
              "internalType": "uint256",
              "name": "tokenId",
              "type": "uint256"
            },
            {
              "internalType": "address payable",
              "name": "seller",
              "type": "address"
            },
            {
              "internalType": "address payable",
              "name": "owner",
              "type": "address"
            },
            {
              "internalType": "uint256",
              "name": "price",
              "type": "uint256"
            },
            {
              "internalType": "bool",
              "name": "sold",
              "type": "bool"
            },
            {
              "internalType": "address",
              "name": "auction",
              "type": "address"
            },
            {
              "internalType": "string",
              "name": "category",
              "type": "string"
            },
            {
              "internalType": "address payable",
              "name": "artist",
              "type": "address"
            },
            {
              "internalType": "address",
              "name": "collectionAddress",
              "type": "address"
            }
          ],
          "internalType": "struct NFTMarket.MarketItem[]",
          "name": "",
          "type": "tuple[]"
        }
      ],
      "stateMutability": "view",
      "type": "function",
      "constant": true
    },
    {
      "inputs": [
        {
          "internalType": "uint256",
          "name": "_id",
          "type": "uint256"
        }
      ],
      "name": "getItemByID",
      "outputs": [
        {
          "components": [
            {
              "internalType": "uint256",
              "name": "itemId",
              "type": "uint256"
            },
            {
              "internalType": "address",
              "name": "nftContract",
              "type": "address"
            },
            {
              "internalType": "uint256",
              "name": "tokenId",
              "type": "uint256"
            },
            {
              "internalType": "address payable",
              "name": "seller",
              "type": "address"
            },
            {
              "internalType": "address payable",
              "name": "owner",
              "type": "address"
            },
            {
              "internalType": "uint256",
              "name": "price",
              "type": "uint256"
            },
            {
              "internalType": "bool",
              "name": "sold",
              "type": "bool"
            },
            {
              "internalType": "address",
              "name": "auction",
              "type": "address"
            },
            {
              "internalType": "string",
              "name": "category",
              "type": "string"
            },
            {
              "internalType": "address payable",
              "name": "artist",
              "type": "address"
            },
            {
              "internalType": "address",
              "name": "collectionAddress",
              "type": "address"
            }
          ],
          "internalType": "struct NFTMarket.MarketItem",
          "name": "",
          "type": "tuple"
        }
      ],
      "stateMutability": "view",
      "type": "function",
      "constant": true
    },
    {
      "inputs": [
        {
          "internalType": "string",
          "name": "_category",
          "type": "string"
        }
      ],
      "name": "fetctNFTsByCatgory",
      "outputs": [
        {
          "components": [
            {
              "internalType": "uint256",
              "name": "itemId",
              "type": "uint256"
            },
            {
              "internalType": "address",
              "name": "nftContract",
              "type": "address"
            },
            {
              "internalType": "uint256",
              "name": "tokenId",
              "type": "uint256"
            },
            {
              "internalType": "address payable",
              "name": "seller",
              "type": "address"
            },
            {
              "internalType": "address payable",
              "name": "owner",
              "type": "address"
            },
            {
              "internalType": "uint256",
              "name": "price",
              "type": "uint256"
            },
            {
              "internalType": "bool",
              "name": "sold",
              "type": "bool"
            },
            {
              "internalType": "address",
              "name": "auction",
              "type": "address"
            },
            {
              "internalType": "string",
              "name": "category",
              "type": "string"
            },
            {
              "internalType": "address payable",
              "name": "artist",
              "type": "address"
            },
            {
              "internalType": "address",
              "name": "collectionAddress",
              "type": "address"
            }
          ],
          "internalType": "struct NFTMarket.MarketItem[]",
          "name": "",
          "type": "tuple[]"
        }
      ],
      "stateMutability": "view",
      "type": "function",
      "constant": true
    },
    {
      "inputs": [
        {
          "internalType": "address",
          "name": "_collectionAddress",
          "type": "address"
        }
      ],
      "name": "fetctNFTsByCollection",
      "outputs": [
        {
          "components": [
            {
              "internalType": "uint256",
              "name": "itemId",
              "type": "uint256"
            },
            {
              "internalType": "address",
              "name": "nftContract",
              "type": "address"
            },
            {
              "internalType": "uint256",
              "name": "tokenId",
              "type": "uint256"
            },
            {
              "internalType": "address payable",
              "name": "seller",
              "type": "address"
            },
            {
              "internalType": "address payable",
              "name": "owner",
              "type": "address"
            },
            {
              "internalType": "uint256",
              "name": "price",
              "type": "uint256"
            },
            {
              "internalType": "bool",
              "name": "sold",
              "type": "bool"
            },
            {
              "internalType": "address",
              "name": "auction",
              "type": "address"
            },
            {
              "internalType": "string",
              "name": "category",
              "type": "string"
            },
            {
              "internalType": "address payable",
              "name": "artist",
              "type": "address"
            },
            {
              "internalType": "address",
              "name": "collectionAddress",
              "type": "address"
            }
          ],
          "internalType": "struct NFTMarket.MarketItem[]",
          "name": "",
          "type": "tuple[]"
        }
      ],
      "stateMutability": "view",
      "type": "function",
      "constant": true
    }
  ],
  "bytecode": "0x60806040526658d15e1762800060045534801561001b57600080fd5b50600160008190555033600360006101000a81548173ffffffffffffffffffffffffffffffffffffffff021916908373ffffffffffffffffffffffffffffffffffffffff160217905550615ffc806100746000396000f3fe608060405260043610620000b65760003560e01c806347afbe5e116200006d57806347afbe5e14620002175780638cb5419e1462000237578063c0a800e8146200027b578063c23b139e146200029b578063f064c32e14620002bb578063f91b601314620002eb57620000b6565b80630f08efe014620000bb57806312e8558514620000eb578063202e3740146200011b57806328cb59e5146200014b5780632cef206d146200018f578063433ea74714620001d3575b600080fd5b348015620000c857600080fd5b50620000d36200032f565b604051620000e2919062003608565b60405180910390f35b348015620000f857600080fd5b5062000103620007b3565b6040516200011291906200363d565b60405180910390f35b3480156200012857600080fd5b5062000133620007bd565b60405162000142919062003608565b60405180910390f35b3480156200015857600080fd5b506200017760048036038101906200017191906200369f565b62000cc8565b60405162000186919062003608565b60405180910390f35b3480156200019c57600080fd5b50620001bb6004803603810190620001b5919062003702565b620011d5565b604051620001ca91906200376f565b60405180910390f35b348015620001e057600080fd5b50620001ff6004803603810190620001f991906200378c565b62001450565b6040516200020e9190620038c3565b60405180910390f35b6200023560048036038101906200022f919062003a69565b62001757565b005b3480156200024457600080fd5b506200026360048036038101906200025d919062003b24565b62001b71565b60405162000272919062003608565b60405180910390f35b62000299600480360381019062000293919062003b75565b62002098565b005b620002b96004803603810190620002b3919062003c7c565b620028b5565b005b348015620002c857600080fd5b50620002d362002b9a565b604051620002e2919062003608565b60405180910390f35b348015620002f857600080fd5b506200031760048036038101906200031191906200378c565b620030a5565b6040516200032691906200363d565b60405180910390f35b606060006200033f6001620030cc565b905060006200034f6002620030cc565b6200035b6001620030cc565b62000367919062003cf2565b90506000808267ffffffffffffffff81111562000389576200038862003922565b5b604051908082528060200260200182016040528015620003c657816020015b620003b26200314f565b815260200190600190039081620003a85790505b50905060005b84811015620007a857600073ffffffffffffffffffffffffffffffffffffffff166005600060018462000400919062003d2d565b815260200190815260200160002060040160009054906101000a900473ffffffffffffffffffffffffffffffffffffffff1673ffffffffffffffffffffffffffffffffffffffff1614156200079257600060018262000460919062003d2d565b905060006005600083815260200190815260200160002090508060405180610160016040529081600082015481526020016001820160009054906101000a900473ffffffffffffffffffffffffffffffffffffffff1673ffffffffffffffffffffffffffffffffffffffff1673ffffffffffffffffffffffffffffffffffffffff168152602001600282015481526020016003820160009054906101000a900473ffffffffffffffffffffffffffffffffffffffff1673ffffffffffffffffffffffffffffffffffffffff1673ffffffffffffffffffffffffffffffffffffffff1681526020016004820160009054906101000a900473ffffffffffffffffffffffffffffffffffffffff1673ffffffffffffffffffffffffffffffffffffffff1673ffffffffffffffffffffffffffffffffffffffff168152602001600582015481526020016006820160009054906101000a900460ff161515151581526020016006820160019054906101000a900473ffffffffffffffffffffffffffffffffffffffff1673ffffffffffffffffffffffffffffffffffffffff1673ffffffffffffffffffffffffffffffffffffffff168152602001600782018054620006299062003db9565b80601f0160208091040260200160405190810160405280929190818152602001828054620006579062003db9565b8015620006a85780601f106200067c57610100808354040283529160200191620006a8565b820191906000526020600020905b8154815290600101906020018083116200068a57829003601f168201915b505050505081526020016008820160009054906101000a900473ffffffffffffffffffffffffffffffffffffffff1673ffffffffffffffffffffffffffffffffffffffff1673ffffffffffffffffffffffffffffffffffffffff1681526020016009820160009054906101000a900473ffffffffffffffffffffffffffffffffffffffff1673ffffffffffffffffffffffffffffffffffffffff1673ffffffffffffffffffffffffffffffffffffffff168152505084868151811062000773576200077262003def565b5b60200260200101819052506001856200078d919062003d2d565b945050505b80806200079f9062003e1e565b915050620003cc565b508094505050505090565b6000600454905090565b60606000620007cd6001620030cc565b905060008060005b838110156200087f573373ffffffffffffffffffffffffffffffffffffffff166005600060018462000808919062003d2d565b815260200190815260200160002060040160009054906101000a900473ffffffffffffffffffffffffffffffffffffffff1673ffffffffffffffffffffffffffffffffffffffff161415620008695760018362000866919062003d2d565b92505b8080620008769062003e1e565b915050620007d5565b5060008267ffffffffffffffff8111156200089f576200089e62003922565b5b604051908082528060200260200182016040528015620008dc57816020015b620008c86200314f565b815260200190600190039081620008be5790505b50905060005b8481101562000cbd573373ffffffffffffffffffffffffffffffffffffffff166005600060018462000915919062003d2d565b815260200190815260200160002060040160009054906101000a900473ffffffffffffffffffffffffffffffffffffffff1673ffffffffffffffffffffffffffffffffffffffff16141562000ca757600060018262000975919062003d2d565b905060006005600083815260200190815260200160002090508060405180610160016040529081600082015481526020016001820160009054906101000a900473ffffffffffffffffffffffffffffffffffffffff1673ffffffffffffffffffffffffffffffffffffffff1673ffffffffffffffffffffffffffffffffffffffff168152602001600282015481526020016003820160009054906101000a900473ffffffffffffffffffffffffffffffffffffffff1673ffffffffffffffffffffffffffffffffffffffff1673ffffffffffffffffffffffffffffffffffffffff1681526020016004820160009054906101000a900473ffffffffffffffffffffffffffffffffffffffff1673ffffffffffffffffffffffffffffffffffffffff1673ffffffffffffffffffffffffffffffffffffffff168152602001600582015481526020016006820160009054906101000a900460ff161515151581526020016006820160019054906101000a900473ffffffffffffffffffffffffffffffffffffffff1673ffffffffffffffffffffffffffffffffffffffff1673ffffffffffffffffffffffffffffffffffffffff16815260200160078201805462000b3e9062003db9565b80601f016020809104026020016040519081016040528092919081815260200182805462000b6c9062003db9565b801562000bbd5780601f1062000b915761010080835404028352916020019162000bbd565b820191906000526020600020905b81548152906001019060200180831162000b9f57829003601f168201915b505050505081526020016008820160009054906101000a900473ffffffffffffffffffffffffffffffffffffffff1673ffffffffffffffffffffffffffffffffffffffff1673ffffffffffffffffffffffffffffffffffffffff1681526020016009820160009054906101000a900473ffffffffffffffffffffffffffffffffffffffff1673ffffffffffffffffffffffffffffffffffffffff1673ffffffffffffffffffffffffffffffffffffffff168152505084868151811062000c885762000c8762003def565b5b602002602001018190525060018562000ca2919062003d2d565b945050505b808062000cb49062003e1e565b915050620008e2565b508094505050505090565b6060600062000cd86001620030cc565b905060008060005b8381101562000d8a578573ffffffffffffffffffffffffffffffffffffffff166005600060018462000d13919062003d2d565b815260200190815260200160002060090160009054906101000a900473ffffffffffffffffffffffffffffffffffffffff1673ffffffffffffffffffffffffffffffffffffffff16141562000d745760018362000d71919062003d2d565b92505b808062000d819062003e1e565b91505062000ce0565b5060008267ffffffffffffffff81111562000daa5762000da962003922565b5b60405190808252806020026020018201604052801562000de757816020015b62000dd36200314f565b81526020019060019003908162000dc95790505b50905060005b84811015620011c8578673ffffffffffffffffffffffffffffffffffffffff166005600060018462000e20919062003d2d565b815260200190815260200160002060090160009054906101000a900473ffffffffffffffffffffffffffffffffffffffff1673ffffffffffffffffffffffffffffffffffffffff161415620011b257600060018262000e80919062003d2d565b905060006005600083815260200190815260200160002090508060405180610160016040529081600082015481526020016001820160009054906101000a900473ffffffffffffffffffffffffffffffffffffffff1673ffffffffffffffffffffffffffffffffffffffff1673ffffffffffffffffffffffffffffffffffffffff168152602001600282015481526020016003820160009054906101000a900473ffffffffffffffffffffffffffffffffffffffff1673ffffffffffffffffffffffffffffffffffffffff1673ffffffffffffffffffffffffffffffffffffffff1681526020016004820160009054906101000a900473ffffffffffffffffffffffffffffffffffffffff1673ffffffffffffffffffffffffffffffffffffffff1673ffffffffffffffffffffffffffffffffffffffff168152602001600582015481526020016006820160009054906101000a900460ff161515151581526020016006820160019054906101000a900473ffffffffffffffffffffffffffffffffffffffff1673ffffffffffffffffffffffffffffffffffffffff1673ffffffffffffffffffffffffffffffffffffffff168152602001600782018054620010499062003db9565b80601f0160208091040260200160405190810160405280929190818152602001828054620010779062003db9565b8015620010c85780601f106200109c57610100808354040283529160200191620010c8565b820191906000526020600020905b815481529060010190602001808311620010aa57829003601f168201915b505050505081526020016008820160009054906101000a900473ffffffffffffffffffffffffffffffffffffffff1673ffffffffffffffffffffffffffffffffffffffff1673ffffffffffffffffffffffffffffffffffffffff1681526020016009820160009054906101000a900473ffffffffffffffffffffffffffffffffffffffff1673ffffffffffffffffffffffffffffffffffffffff1673ffffffffffffffffffffffffffffffffffffffff168152505084868151811062001193576200119262003def565b5b6020026020010181905250600185620011ad919062003d2d565b945050505b8080620011bf9062003e1e565b91505062000ded565b5080945050505050919050565b60008060056000858152602001908152602001600020600201549050600073ffffffffffffffffffffffffffffffffffffffff166005600086815260200190815260200160002060060160019054906101000a900473ffffffffffffffffffffffffffffffffffffffff1673ffffffffffffffffffffffffffffffffffffffff1614156200129a576040517f08c379a0000000000000000000000000000000000000000000000000000000008152600401620012919062003ecd565b60405180910390fd5b3373ffffffffffffffffffffffffffffffffffffffff166005600086815260200190815260200160002060030160009054906101000a900473ffffffffffffffffffffffffffffffffffffffff1673ffffffffffffffffffffffffffffffffffffffff161462001341576040517f08c379a0000000000000000000000000000000000000000000000000000000008152600401620013389062003f3f565b60405180910390fd5b8473ffffffffffffffffffffffffffffffffffffffff166323b872dd3085846040518463ffffffff1660e01b8152600401620013809392919062003f72565b600060405180830381600087803b1580156200139b57600080fd5b505af1158015620013b0573d6000803e3d6000fd5b50505050826005600086815260200190815260200160002060040160006101000a81548173ffffffffffffffffffffffffffffffffffffffff021916908373ffffffffffffffffffffffffffffffffffffffff16021790555060016005600086815260200190815260200160002060060160006101000a81548160ff021916908315150217905550620014446002620030da565b60019150509392505050565b6200145a6200314f565b6005600083815260200190815260200160002060405180610160016040529081600082015481526020016001820160009054906101000a900473ffffffffffffffffffffffffffffffffffffffff1673ffffffffffffffffffffffffffffffffffffffff1673ffffffffffffffffffffffffffffffffffffffff168152602001600282015481526020016003820160009054906101000a900473ffffffffffffffffffffffffffffffffffffffff1673ffffffffffffffffffffffffffffffffffffffff1673ffffffffffffffffffffffffffffffffffffffff1681526020016004820160009054906101000a900473ffffffffffffffffffffffffffffffffffffffff1673ffffffffffffffffffffffffffffffffffffffff1673ffffffffffffffffffffffffffffffffffffffff168152602001600582015481526020016006820160009054906101000a900460ff161515151581526020016006820160019054906101000a900473ffffffffffffffffffffffffffffffffffffffff1673ffffffffffffffffffffffffffffffffffffffff1673ffffffffffffffffffffffffffffffffffffffff1681526020016007820180546200161c9062003db9565b80601f01602080910402602001604051908101604052809291908181526020018280546200164a9062003db9565b80156200169b5780601f106200166f576101008083540402835291602001916200169b565b820191906000526020600020905b8154815290600101906020018083116200167d57829003601f168201915b505050505081526020016008820160009054906101000a900473ffffffffffffffffffffffffffffffffffffffff1673ffffffffffffffffffffffffffffffffffffffff1673ffffffffffffffffffffffffffffffffffffffff1681526020016009820160009054906101000a900473ffffffffffffffffffffffffffffffffffffffff1673ffffffffffffffffffffffffffffffffffffffff1673ffffffffffffffffffffffffffffffffffffffff16815250509050919050565b60026000541415620017a0576040517f08c379a0000000000000000000000000000000000000000000000000000000008152600401620017979062003fff565b60405180910390fd5b60026000819055506005600086815260200190815260200160002060040160009054906101000a900473ffffffffffffffffffffffffffffffffffffffff1673ffffffffffffffffffffffffffffffffffffffff163373ffffffffffffffffffffffffffffffffffffffff16146200184f576040517f08c379a0000000000000000000000000000000000000000000000000000000008152600401620018469062004071565b60405180910390fd5b6200185a84620030a5565b34146200189e576040517f08c379a0000000000000000000000000000000000000000000000000000000008152600401620018959062004109565b60405180910390fd5b600060056000878152602001908152602001600020600201549050831562001995576000838333600560008b815260200190815260200160002060080160009054906101000a900473ffffffffffffffffffffffffffffffffffffffff166040516200190a906200322f565b6200191994939291906200417d565b604051809103906000f08015801562001936573d6000803e3d6000fd5b509050806005600089815260200190815260200160002060060160016101000a81548173ffffffffffffffffffffffffffffffffffffffff021916908373ffffffffffffffffffffffffffffffffffffffff16021790555050620019ec565b60006005600088815260200190815260200160002060060160016101000a81548173ffffffffffffffffffffffffffffffffffffffff021916908373ffffffffffffffffffffffffffffffffffffffff1602179055505b846005600088815260200190815260200160002060050181905550336005600088815260200190815260200160002060030160006101000a81548173ffffffffffffffffffffffffffffffffffffffff021916908373ffffffffffffffffffffffffffffffffffffffff16021790555060006005600088815260200190815260200160002060040160006101000a81548173ffffffffffffffffffffffffffffffffffffffff021916908373ffffffffffffffffffffffffffffffffffffffff16021790555060006005600088815260200190815260200160002060060160006101000a81548160ff0219169083151502179055508673ffffffffffffffffffffffffffffffffffffffff166323b872dd3330846040518463ffffffff1660e01b815260040162001b209392919062003f72565b600060405180830381600087803b15801562001b3b57600080fd5b505af115801562001b50573d6000803e3d6000fd5b5050505062001b606002620030f0565b506001600081905550505050505050565b6060600062001b816001620030cc565b905060008060005b8381101562001c405785805190602001206005600060018462001bad919062003d2d565b815260200190815260200160002060070160405162001bcd91906200427c565b604051809103902014801562001c1257506005600060018362001bf1919062003d2d565b815260200190815260200160002060060160009054906101000a900460ff16155b1562001c2a5760018362001c27919062003d2d565b92505b808062001c379062003e1e565b91505062001b89565b5060008267ffffffffffffffff81111562001c605762001c5f62003922565b5b60405190808252806020026020018201604052801562001c9d57816020015b62001c896200314f565b81526020019060019003908162001c7f5790505b50905060005b848110156200208b5786805190602001206005600060018462001cc7919062003d2d565b815260200190815260200160002060070160405162001ce791906200427c565b604051809103902014801562001d2c57506005600060018362001d0b919062003d2d565b815260200190815260200160002060060160009054906101000a900460ff16155b156200207557600060018262001d43919062003d2d565b905060006005600083815260200190815260200160002090508060405180610160016040529081600082015481526020016001820160009054906101000a900473ffffffffffffffffffffffffffffffffffffffff1673ffffffffffffffffffffffffffffffffffffffff1673ffffffffffffffffffffffffffffffffffffffff168152602001600282015481526020016003820160009054906101000a900473ffffffffffffffffffffffffffffffffffffffff1673ffffffffffffffffffffffffffffffffffffffff1673ffffffffffffffffffffffffffffffffffffffff1681526020016004820160009054906101000a900473ffffffffffffffffffffffffffffffffffffffff1673ffffffffffffffffffffffffffffffffffffffff1673ffffffffffffffffffffffffffffffffffffffff168152602001600582015481526020016006820160009054906101000a900460ff161515151581526020016006820160019054906101000a900473ffffffffffffffffffffffffffffffffffffffff1673ffffffffffffffffffffffffffffffffffffffff1673ffffffffffffffffffffffffffffffffffffffff16815260200160078201805462001f0c9062003db9565b80601f016020809104026020016040519081016040528092919081815260200182805462001f3a9062003db9565b801562001f8b5780601f1062001f5f5761010080835404028352916020019162001f8b565b820191906000526020600020905b81548152906001019060200180831162001f6d57829003601f168201915b505050505081526020016008820160009054906101000a900473ffffffffffffffffffffffffffffffffffffffff1673ffffffffffffffffffffffffffffffffffffffff1673ffffffffffffffffffffffffffffffffffffffff1681526020016009820160009054906101000a900473ffffffffffffffffffffffffffffffffffffffff1673ffffffffffffffffffffffffffffffffffffffff1673ffffffffffffffffffffffffffffffffffffffff168152505084868151811062002056576200205562003def565b5b602002602001018190525060018562002070919062003d2d565b945050505b8080620020829062003e1e565b91505062001ca3565b5080945050505050919050565b60026000541415620020e1576040517f08c379a0000000000000000000000000000000000000000000000000000000008152600401620020d89062003fff565b60405180910390fd5b6002600081905550600086116200212f576040517f08c379a00000000000000000000000000000000000000000000000000000000081526004016200212690620042e5565b60405180910390fd5b6200213a86620030a5565b34146200217e576040517f08c379a0000000000000000000000000000000000000000000000000000000008152600401620021759062004109565b60405180910390fd5b6200218a6001620030da565b6000620021986001620030cc565b90508515620024df57600085853333604051620021b5906200322f565b620021c494939291906200417d565b604051809103906000f080158015620021e1573d6000803e3d6000fd5b5090506040518061016001604052808381526020018b73ffffffffffffffffffffffffffffffffffffffff1681526020018a81526020013373ffffffffffffffffffffffffffffffffffffffff168152602001600073ffffffffffffffffffffffffffffffffffffffff1681526020018981526020016000151581526020018273ffffffffffffffffffffffffffffffffffffffff1681526020018581526020013373ffffffffffffffffffffffffffffffffffffffff1681526020018473ffffffffffffffffffffffffffffffffffffffff16815250600560008481526020019081526020016000206000820151816000015560208201518160010160006101000a81548173ffffffffffffffffffffffffffffffffffffffff021916908373ffffffffffffffffffffffffffffffffffffffff1602179055506040820151816002015560608201518160030160006101000a81548173ffffffffffffffffffffffffffffffffffffffff021916908373ffffffffffffffffffffffffffffffffffffffff16021790555060808201518160040160006101000a81548173ffffffffffffffffffffffffffffffffffffffff021916908373ffffffffffffffffffffffffffffffffffffffff16021790555060a0820151816005015560c08201518160060160006101000a81548160ff02191690831515021790555060e08201518160060160016101000a81548173ffffffffffffffffffffffffffffffffffffffff021916908373ffffffffffffffffffffffffffffffffffffffff160217905550610100820151816007019080519060200190620024449291906200323d565b506101208201518160080160006101000a81548173ffffffffffffffffffffffffffffffffffffffff021916908373ffffffffffffffffffffffffffffffffffffffff1602179055506101408201518160090160006101000a81548173ffffffffffffffffffffffffffffffffffffffff021916908373ffffffffffffffffffffffffffffffffffffffff16021790555090505050620027d5565b6040518061016001604052808281526020018a73ffffffffffffffffffffffffffffffffffffffff1681526020018981526020013373ffffffffffffffffffffffffffffffffffffffff168152602001600073ffffffffffffffffffffffffffffffffffffffff168152602001888152602001600015158152602001600073ffffffffffffffffffffffffffffffffffffffff1681526020018481526020013373ffffffffffffffffffffffffffffffffffffffff1681526020018373ffffffffffffffffffffffffffffffffffffffff16815250600560008381526020019081526020016000206000820151816000015560208201518160010160006101000a81548173ffffffffffffffffffffffffffffffffffffffff021916908373ffffffffffffffffffffffffffffffffffffffff1602179055506040820151816002015560608201518160030160006101000a81548173ffffffffffffffffffffffffffffffffffffffff021916908373ffffffffffffffffffffffffffffffffffffffff16021790555060808201518160040160006101000a81548173ffffffffffffffffffffffffffffffffffffffff021916908373ffffffffffffffffffffffffffffffffffffffff16021790555060a0820151816005015560c08201518160060160006101000a81548160ff02191690831515021790555060e08201518160060160016101000a81548173ffffffffffffffffffffffffffffffffffffffff021916908373ffffffffffffffffffffffffffffffffffffffff160217905550610100820151816007019080519060200190620027409291906200323d565b506101208201518160080160006101000a81548173ffffffffffffffffffffffffffffffffffffffff021916908373ffffffffffffffffffffffffffffffffffffffff1602179055506101408201518160090160006101000a81548173ffffffffffffffffffffffffffffffffffffffff021916908373ffffffffffffffffffffffffffffffffffffffff1602179055509050505b8873ffffffffffffffffffffffffffffffffffffffff166323b872dd33308b6040518463ffffffff1660e01b8152600401620028149392919062003f72565b600060405180830381600087803b1580156200282f57600080fd5b505af115801562002844573d6000803e3d6000fd5b50505050878973ffffffffffffffffffffffffffffffffffffffff16827f045dfa01dcba2b36aba1d3dc4a874f4b0c5d2fbeb8d2c4b34a7d88c8d8f929d13360008c60006040516200289a949392919062004307565b60405180910390a45060016000819055505050505050505050565b60026000541415620028fe576040517f08c379a0000000000000000000000000000000000000000000000000000000008152600401620028f59062003fff565b60405180910390fd5b600260008190555060006005600083815260200190815260200160002060050154905060006005600084815260200190815260200160002060020154905081341462002981576040517f08c379a00000000000000000000000000000000000000000000000000000000081526004016200297890620043ca565b60405180910390fd5b6005600084815260200190815260200160002060030160009054906101000a900473ffffffffffffffffffffffffffffffffffffffff1673ffffffffffffffffffffffffffffffffffffffff166108fc349081150290604051600060405180830381858888f19350505050158015620029fe573d6000803e3d6000fd5b508373ffffffffffffffffffffffffffffffffffffffff166323b872dd3033846040518463ffffffff1660e01b815260040162002a3e9392919062003f72565b600060405180830381600087803b15801562002a5957600080fd5b505af115801562002a6e573d6000803e3d6000fd5b50505050336005600085815260200190815260200160002060040160006101000a81548173ffffffffffffffffffffffffffffffffffffffff021916908373ffffffffffffffffffffffffffffffffffffffff16021790555060016005600085815260200190815260200160002060060160006101000a81548160ff02191690831515021790555062002b026002620030da565b600360009054906101000a900473ffffffffffffffffffffffffffffffffffffffff1673ffffffffffffffffffffffffffffffffffffffff166108fc62002b5f6005600087815260200190815260200160002060050154620030a5565b9081150290604051600060405180830381858888f1935050505015801562002b8b573d6000803e3d6000fd5b50505060016000819055505050565b6060600062002baa6001620030cc565b905060008060005b8381101562002c5c573373ffffffffffffffffffffffffffffffffffffffff166005600060018462002be5919062003d2d565b815260200190815260200160002060030160009054906101000a900473ffffffffffffffffffffffffffffffffffffffff1673ffffffffffffffffffffffffffffffffffffffff16141562002c465760018362002c43919062003d2d565b92505b808062002c539062003e1e565b91505062002bb2565b5060008267ffffffffffffffff81111562002c7c5762002c7b62003922565b5b60405190808252806020026020018201604052801562002cb957816020015b62002ca56200314f565b81526020019060019003908162002c9b5790505b50905060005b848110156200309a573373ffffffffffffffffffffffffffffffffffffffff166005600060018462002cf2919062003d2d565b815260200190815260200160002060030160009054906101000a900473ffffffffffffffffffffffffffffffffffffffff1673ffffffffffffffffffffffffffffffffffffffff1614156200308457600060018262002d52919062003d2d565b905060006005600083815260200190815260200160002090508060405180610160016040529081600082015481526020016001820160009054906101000a900473ffffffffffffffffffffffffffffffffffffffff1673ffffffffffffffffffffffffffffffffffffffff1673ffffffffffffffffffffffffffffffffffffffff168152602001600282015481526020016003820160009054906101000a900473ffffffffffffffffffffffffffffffffffffffff1673ffffffffffffffffffffffffffffffffffffffff1673ffffffffffffffffffffffffffffffffffffffff1681526020016004820160009054906101000a900473ffffffffffffffffffffffffffffffffffffffff1673ffffffffffffffffffffffffffffffffffffffff1673ffffffffffffffffffffffffffffffffffffffff168152602001600582015481526020016006820160009054906101000a900460ff161515151581526020016006820160019054906101000a900473ffffffffffffffffffffffffffffffffffffffff1673ffffffffffffffffffffffffffffffffffffffff1673ffffffffffffffffffffffffffffffffffffffff16815260200160078201805462002f1b9062003db9565b80601f016020809104026020016040519081016040528092919081815260200182805462002f499062003db9565b801562002f9a5780601f1062002f6e5761010080835404028352916020019162002f9a565b820191906000526020600020905b81548152906001019060200180831162002f7c57829003601f168201915b505050505081526020016008820160009054906101000a900473ffffffffffffffffffffffffffffffffffffffff1673ffffffffffffffffffffffffffffffffffffffff1673ffffffffffffffffffffffffffffffffffffffff1681526020016009820160009054906101000a900473ffffffffffffffffffffffffffffffffffffffff1673ffffffffffffffffffffffffffffffffffffffff1673ffffffffffffffffffffffffffffffffffffffff168152505084868151811062003065576200306462003def565b5b60200260200101819052506001856200307f919062003d2d565b945050505b8080620030919062003e1e565b91505062002cbf565b508094505050505090565b6000612710606483620030b99190620043ec565b620030c591906200447c565b9050919050565b600081600001549050919050565b6001816000016000828254019250508190555050565b600081600001549050600081116200313f576040517f08c379a0000000000000000000000000000000000000000000000000000000008152600401620031369062004504565b60405180910390fd5b6001810382600001819055505050565b60405180610160016040528060008152602001600073ffffffffffffffffffffffffffffffffffffffff16815260200160008152602001600073ffffffffffffffffffffffffffffffffffffffff168152602001600073ffffffffffffffffffffffffffffffffffffffff16815260200160008152602001600015158152602001600073ffffffffffffffffffffffffffffffffffffffff16815260200160608152602001600073ffffffffffffffffffffffffffffffffffffffff168152602001600073ffffffffffffffffffffffffffffffffffffffff1681525090565b611aa0806200452783390190565b8280546200324b9062003db9565b90600052602060002090601f0160209004810192826200326f5760008555620032bb565b82601f106200328a57805160ff1916838001178555620032bb565b82800160010185558215620032bb579182015b82811115620032ba5782518255916020019190600101906200329d565b5b509050620032ca9190620032ce565b5090565b5b80821115620032e9576000816000905550600101620032cf565b5090565b600081519050919050565b600082825260208201905092915050565b6000819050602082019050919050565b6000819050919050565b6200332e8162003319565b82525050565b600073ffffffffffffffffffffffffffffffffffffffff82169050919050565b6000620033618262003334565b9050919050565b620033738162003354565b82525050565b6000620033868262003334565b9050919050565b620033988162003379565b82525050565b60008115159050919050565b620033b5816200339e565b82525050565b600081519050919050565b600082825260208201905092915050565b60005b83811015620033f7578082015181840152602081019050620033da565b8381111562003407576000848401525b50505050565b6000601f19601f8301169050919050565b60006200342b82620033bb565b620034378185620033c6565b935062003449818560208601620033d7565b62003454816200340d565b840191505092915050565b6000610160830160008301516200347a600086018262003323565b5060208301516200348f602086018262003368565b506040830151620034a4604086018262003323565b506060830151620034b960608601826200338d565b506080830151620034ce60808601826200338d565b5060a0830151620034e360a086018262003323565b5060c0830151620034f860c0860182620033aa565b5060e08301516200350d60e086018262003368565b506101008301518482036101008601526200352982826200341e565b915050610120830151620035426101208601826200338d565b506101408301516200355961014086018262003368565b508091505092915050565b60006200357283836200345f565b905092915050565b6000602082019050919050565b60006200359482620032ed565b620035a08185620032f8565b935083602082028501620035b48562003309565b8060005b85811015620035f65784840389528151620035d4858262003564565b9450620035e1836200357a565b925060208a01995050600181019050620035b8565b50829750879550505050505092915050565b6000602082019050818103600083015262003624818462003587565b905092915050565b620036378162003319565b82525050565b60006020820190506200365460008301846200362c565b92915050565b6000604051905090565b600080fd5b600080fd5b620036798162003354565b81146200368557600080fd5b50565b60008135905062003699816200366e565b92915050565b600060208284031215620036b857620036b762003664565b5b6000620036c88482850162003688565b91505092915050565b620036dc8162003319565b8114620036e857600080fd5b50565b600081359050620036fc81620036d1565b92915050565b6000806000606084860312156200371e576200371d62003664565b5b60006200372e8682870162003688565b93505060206200374186828701620036eb565b9250506040620037548682870162003688565b9150509250925092565b62003769816200339e565b82525050565b60006020820190506200378660008301846200375e565b92915050565b600060208284031215620037a557620037a462003664565b5b6000620037b584828501620036eb565b91505092915050565b600061016083016000830151620037d9600086018262003323565b506020830151620037ee602086018262003368565b50604083015162003803604086018262003323565b5060608301516200381860608601826200338d565b5060808301516200382d60808601826200338d565b5060a08301516200384260a086018262003323565b5060c08301516200385760c0860182620033aa565b5060e08301516200386c60e086018262003368565b506101008301518482036101008601526200388882826200341e565b915050610120830151620038a16101208601826200338d565b50610140830151620038b861014086018262003368565b508091505092915050565b60006020820190508181036000830152620038df8184620037be565b905092915050565b620038f2816200339e565b8114620038fe57600080fd5b50565b6000813590506200391281620038e7565b92915050565b600080fd5b600080fd5b7f4e487b7100000000000000000000000000000000000000000000000000000000600052604160045260246000fd5b6200395c826200340d565b810181811067ffffffffffffffff821117156200397e576200397d62003922565b5b80604052505050565b6000620039936200365a565b9050620039a1828262003951565b919050565b600067ffffffffffffffff821115620039c457620039c362003922565b5b620039cf826200340d565b9050602081019050919050565b82818337600083830152505050565b600062003a02620039fc84620039a6565b62003987565b90508281526020810184848401111562003a215762003a206200391d565b5b62003a2e848285620039dc565b509392505050565b600082601f83011262003a4e5762003a4d62003918565b5b813562003a60848260208601620039eb565b91505092915050565b60008060008060008060c0878903121562003a895762003a8862003664565b5b600062003a9989828a0162003688565b965050602062003aac89828a01620036eb565b955050604062003abf89828a01620036eb565b945050606062003ad289828a0162003901565b935050608062003ae589828a01620036eb565b92505060a087013567ffffffffffffffff81111562003b095762003b0862003669565b5b62003b1789828a0162003a36565b9150509295509295509295565b60006020828403121562003b3d5762003b3c62003664565b5b600082013567ffffffffffffffff81111562003b5e5762003b5d62003669565b5b62003b6c8482850162003a36565b91505092915050565b600080600080600080600080610100898b03121562003b995762003b9862003664565b5b600062003ba98b828c0162003688565b985050602062003bbc8b828c01620036eb565b975050604062003bcf8b828c01620036eb565b965050606062003be28b828c0162003901565b955050608062003bf58b828c01620036eb565b94505060a089013567ffffffffffffffff81111562003c195762003c1862003669565b5b62003c278b828c0162003a36565b93505060c089013567ffffffffffffffff81111562003c4b5762003c4a62003669565b5b62003c598b828c0162003a36565b92505060e062003c6c8b828c0162003688565b9150509295985092959890939650565b6000806040838503121562003c965762003c9562003664565b5b600062003ca68582860162003688565b925050602062003cb985828601620036eb565b9150509250929050565b7f4e487b7100000000000000000000000000000000000000000000000000000000600052601160045260246000fd5b600062003cff8262003319565b915062003d0c8362003319565b92508282101562003d225762003d2162003cc3565b5b828203905092915050565b600062003d3a8262003319565b915062003d478362003319565b9250827fffffffffffffffffffffffffffffffffffffffffffffffffffffffffffffffff0382111562003d7f5762003d7e62003cc3565b5b828201905092915050565b7f4e487b7100000000000000000000000000000000000000000000000000000000600052602260045260246000fd5b6000600282049050600182168062003dd257607f821691505b6020821081141562003de95762003de862003d8a565b5b50919050565b7f4e487b7100000000000000000000000000000000000000000000000000000000600052603260045260246000fd5b600062003e2b8262003319565b91507fffffffffffffffffffffffffffffffffffffffffffffffffffffffffffffffff82141562003e615762003e6062003cc3565b5b600182019050919050565b600082825260208201905092915050565b7f41756374696f6e20646f6573206e6f7420657869737400000000000000000000600082015250565b600062003eb560168362003e6c565b915062003ec28262003e7d565b602082019050919050565b6000602082019050818103600083015262003ee88162003ea6565b9050919050565b7f4f6e6c792073656c6c65722063616e207472616e736665722061737365740000600082015250565b600062003f27601e8362003e6c565b915062003f348262003eef565b602082019050919050565b6000602082019050818103600083015262003f5a8162003f18565b9050919050565b62003f6c8162003354565b82525050565b600060608201905062003f89600083018662003f61565b62003f98602083018562003f61565b62003fa760408301846200362c565b949350505050565b7f5265656e7472616e637947756172643a207265656e7472616e742063616c6c00600082015250565b600062003fe7601f8362003e6c565b915062003ff48262003faf565b602082019050919050565b600060208201905081810360008301526200401a8162003fd8565b9050919050565b7f4f6e6c79206f776e65722063616e20726573616c65206974656d000000000000600082015250565b600062004059601a8362003e6c565b9150620040668262004021565b602082019050919050565b600060208201905081810360008301526200408c816200404a565b9050919050565b7f5072696365206d75737420626520657175616c20746f206c697374696e67207060008201527f7269636500000000000000000000000000000000000000000000000000000000602082015250565b6000620040f160248362003e6c565b9150620040fe8262004093565b604082019050919050565b600060208201905081810360008301526200412481620040e2565b9050919050565b60006200413882620033bb565b62004144818562003e6c565b935062004156818560208601620033d7565b62004161816200340d565b840191505092915050565b620041778162003379565b82525050565b60006080820190506200419460008301876200362c565b8181036020830152620041a881866200412b565b9050620041b960408301856200416c565b620041c860608301846200416c565b95945050505050565b600081905092915050565b60008190508160005260206000209050919050565b60008154620042008162003db9565b6200420c8186620041d1565b945060018216600081146200422a57600181146200423c5762004273565b60ff1983168652818601935062004273565b6200424785620041dc565b60005b838110156200426b578154818901526001820191506020810190506200424a565b838801955050505b50505092915050565b60006200428a8284620041f1565b915081905092915050565b7f5072696365206d757374206265206174206c6561737420312077656900000000600082015250565b6000620042cd601c8362003e6c565b9150620042da8262004295565b602082019050919050565b600060208201905081810360008301526200430081620042be565b9050919050565b60006080820190506200431e600083018762003f61565b6200432d602083018662003f61565b6200433c60408301856200362c565b6200434b60608301846200375e565b95945050505050565b7f506c65617365207375626d6974207468652061736b696e67207072696365206960008201527f6e206f7264657220746f20636f6d706c65746520746865207075726368617365602082015250565b6000620043b260408362003e6c565b9150620043bf8262004354565b604082019050919050565b60006020820190508181036000830152620043e581620043a3565b9050919050565b6000620043f98262003319565b9150620044068362003319565b9250817fffffffffffffffffffffffffffffffffffffffffffffffffffffffffffffffff048311821515161562004442576200444162003cc3565b5b828202905092915050565b7f4e487b7100000000000000000000000000000000000000000000000000000000600052601260045260246000fd5b6000620044898262003319565b9150620044968362003319565b925082620044a957620044a86200444d565b5b828204905092915050565b7f436f756e7465723a2064656372656d656e74206f766572666c6f770000000000600082015250565b6000620044ec601b8362003e6c565b9150620044f982620044b4565b602082019050919050565b600060208201905081810360008301526200451f81620044dd565b905091905056fe60806040526000600960006101000a81548160ff0219169083151502179055503480156200002c57600080fd5b5060405162001aa038038062001aa08339818101604052810190620000529190620003f8565b81600160006101000a81548173ffffffffffffffffffffffffffffffffffffffff021916908373ffffffffffffffffffffffffffffffffffffffff16021790555080600260006101000a81548173ffffffffffffffffffffffffffffffffffffffff021916908373ffffffffffffffffffffffffffffffffffffffff1602179055508342620000e29190620004b8565b6003819055508260049080519060200190620001009291906200010b565b50505050506200057a565b828054620001199062000544565b90600052602060002090601f0160209004810192826200013d576000855562000189565b82601f106200015857805160ff191683800117855562000189565b8280016001018555821562000189579182015b82811115620001885782518255916020019190600101906200016b565b5b5090506200019891906200019c565b5090565b5b80821115620001b75760008160009055506001016200019d565b5090565b6000604051905090565b600080fd5b600080fd5b6000819050919050565b620001e481620001cf565b8114620001f057600080fd5b50565b6000815190506200020481620001d9565b92915050565b600080fd5b600080fd5b6000601f19601f8301169050919050565b7f4e487b7100000000000000000000000000000000000000000000000000000000600052604160045260246000fd5b6200025f8262000214565b810181811067ffffffffffffffff8211171562000281576200028062000225565b5b80604052505050565b600062000296620001bb565b9050620002a4828262000254565b919050565b600067ffffffffffffffff821115620002c757620002c662000225565b5b620002d28262000214565b9050602081019050919050565b60005b83811015620002ff578082015181840152602081019050620002e2565b838111156200030f576000848401525b50505050565b60006200032c6200032684620002a9565b6200028a565b9050828152602081018484840111156200034b576200034a6200020f565b5b62000358848285620002df565b509392505050565b600082601f8301126200037857620003776200020a565b5b81516200038a84826020860162000315565b91505092915050565b600073ffffffffffffffffffffffffffffffffffffffff82169050919050565b6000620003c08262000393565b9050919050565b620003d281620003b3565b8114620003de57600080fd5b50565b600081519050620003f281620003c7565b92915050565b60008060008060808587031215620004155762000414620001c5565b5b60006200042587828801620001f3565b945050602085015167ffffffffffffffff811115620004495762000448620001ca565b5b620004578782880162000360565b93505060406200046a87828801620003e1565b92505060606200047d87828801620003e1565b91505092959194509250565b7f4e487b7100000000000000000000000000000000000000000000000000000000600052601160045260246000fd5b6000620004c582620001cf565b9150620004d283620001cf565b9250827fffffffffffffffffffffffffffffffffffffffffffffffffffffffffffffffff038211156200050a576200050962000489565b5b828201905092915050565b7f4e487b7100000000000000000000000000000000000000000000000000000000600052602260045260246000fd5b600060028204905060018216806200055d57607f821691505b6020821081141562000574576200057362000515565b5b50919050565b611516806200058a6000396000f3fe6080604052600436106100a75760003560e01c806343bc16121161006457806343bc16121461019d5780634423c5f1146101c85780634b449cba146102085780638d0f6da31461023357806391f901571461025e578063d57bde7914610289576100a7565b80631998aeef146100ac57806326b387bb146100b65780632a24f46c146100f35780632e1a7d4d1461010a57806338af3eed146101475780633d827e0514610172575b600080fd5b6100b46102b4565b005b3480156100c257600080fd5b506100dd60048036038101906100d89190610cad565b6105de565b6040516100ea9190610cf3565b60405180910390f35b3480156100ff57600080fd5b506101086105f6565b005b34801561011657600080fd5b50610131600480360381019061012c9190610d3a565b610770565b60405161013e9190610d82565b60405180910390f35b34801561015357600080fd5b5061015c610904565b6040516101699190610dbe565b60405180910390f35b34801561017e57600080fd5b5061018761092a565b6040516101949190610e72565b60405180910390f35b3480156101a957600080fd5b506101b26109b8565b6040516101bf9190610dbe565b60405180910390f35b3480156101d457600080fd5b506101ef60048036038101906101ea9190610d3a565b6109de565b6040516101ff9493929190610ea3565b60405180910390f35b34801561021457600080fd5b5061021d610a3b565b60405161022a9190610cf3565b60405180910390f35b34801561023f57600080fd5b50610248610a41565b6040516102559190611019565b60405180910390f35b34801561026a57600080fd5b50610273610bba565b604051610280919061103b565b60405180910390f35b34801561029557600080fd5b5061029e610be0565b6040516102ab9190610cf3565b60405180910390f35b600160009054906101000a900473ffffffffffffffffffffffffffffffffffffffff1673ffffffffffffffffffffffffffffffffffffffff163373ffffffffffffffffffffffffffffffffffffffff161415610345576040517f08c379a000000000000000000000000000000000000000000000000000000000815260040161033c906110a2565b60405180910390fd5b60035442111561038a576040517f08c379a00000000000000000000000000000000000000000000000000000000081526004016103819061110e565b60405180910390fd5b60065434116103ce576040517f08c379a00000000000000000000000000000000000000000000000000000000081526004016103c5906111a0565b60405180910390fd5b6000600654146104535760065460076000600560009054906101000a900473ffffffffffffffffffffffffffffffffffffffff1673ffffffffffffffffffffffffffffffffffffffff1673ffffffffffffffffffffffffffffffffffffffff168152602001908152602001600020600082825461044b91906111ef565b925050819055505b33600560006101000a81548173ffffffffffffffffffffffffffffffffffffffff021916908373ffffffffffffffffffffffffffffffffffffffff160217905550346006819055506104a56000610be6565b60006104b16000610bfc565b90506040518060800160405280828152602001600560009054906101000a900473ffffffffffffffffffffffffffffffffffffffff1673ffffffffffffffffffffffffffffffffffffffff168152602001600654815260200160001515815250600860008381526020019081526020016000206000820151816000015560208201518160010160006101000a81548173ffffffffffffffffffffffffffffffffffffffff021916908373ffffffffffffffffffffffffffffffffffffffff1602179055506040820151816002015560608201518160030160006101000a81548160ff0219169083151502179055509050507f123a2a99bd109b51e435e65e10a7230bdbd13b8a0fa2f7ee4ef740da1f86f0eb33346040516105d3929190611245565b60405180910390a150565b60076020528060005260406000206000915090505481565b60035442101561063b576040517f08c379a0000000000000000000000000000000000000000000000000000000008152600401610632906112ba565b60405180910390fd5b600960009054906101000a900460ff161561068b576040517f08c379a00000000000000000000000000000000000000000000000000000000081526004016106829061134c565b60405180910390fd5b6001600960006101000a81548160ff0219169083151502179055507fdaec4582d5d9595688c8c98545fdd1c696d41c6aeaeb636737e84ed2f5c00eda600560009054906101000a900473ffffffffffffffffffffffffffffffffffffffff166006546040516106fb929190611245565b60405180910390a1600160009054906101000a900473ffffffffffffffffffffffffffffffffffffffff1673ffffffffffffffffffffffffffffffffffffffff166108fc6006549081150290604051600060405180830381858888f1935050505015801561076d573d6000803e3d6000fd5b50565b600080600760003373ffffffffffffffffffffffffffffffffffffffff1673ffffffffffffffffffffffffffffffffffffffff1681526020019081526020016000205490506000811115610837576000600760003373ffffffffffffffffffffffffffffffffffffffff1673ffffffffffffffffffffffffffffffffffffffff1681526020019081526020016000208190555060016008600085815260200190815260200160002060030160006101000a81548160ff021916908315150217905550610872565b6040517f08c379a0000000000000000000000000000000000000000000000000000000008152600401610869906113b8565b60405180910390fd5b3373ffffffffffffffffffffffffffffffffffffffff166108fc829081150290604051600060405180830381858888f193505050506108f95780600760003373ffffffffffffffffffffffffffffffffffffffff1673ffffffffffffffffffffffffffffffffffffffff1681526020019081526020016000208190555060009150506108ff565b60019150505b919050565b600160009054906101000a900473ffffffffffffffffffffffffffffffffffffffff1681565b6004805461093790611407565b80601f016020809104026020016040519081016040528092919081815260200182805461096390611407565b80156109b05780601f10610985576101008083540402835291602001916109b0565b820191906000526020600020905b81548152906001019060200180831161099357829003601f168201915b505050505081565b600260009054906101000a900473ffffffffffffffffffffffffffffffffffffffff1681565b60086020528060005260406000206000915090508060000154908060010160009054906101000a900473ffffffffffffffffffffffffffffffffffffffff16908060020154908060030160009054906101000a900460ff16905084565b60035481565b60606000610a4f6000610bfc565b905060008167ffffffffffffffff811115610a6d57610a6c611439565b5b604051908082528060200260200182016040528015610aa657816020015b610a93610c0a565b815260200190600190039081610a8b5790505b5090506000805b83811015610bb0576000600182610ac491906111ef565b9050600060086000838152602001908152602001600020905080604051806080016040529081600082015481526020016001820160009054906101000a900473ffffffffffffffffffffffffffffffffffffffff1673ffffffffffffffffffffffffffffffffffffffff1673ffffffffffffffffffffffffffffffffffffffff168152602001600282015481526020016003820160009054906101000a900460ff161515151581525050858581518110610b8157610b80611468565b5b6020026020010181905250600184610b9991906111ef565b935050508080610ba890611497565b915050610aad565b5081935050505090565b600560009054906101000a900473ffffffffffffffffffffffffffffffffffffffff1681565b60065481565b6001816000016000828254019250508190555050565b600081600001549050919050565b604051806080016040528060008152602001600073ffffffffffffffffffffffffffffffffffffffff168152602001600081526020016000151581525090565b600080fd5b600073ffffffffffffffffffffffffffffffffffffffff82169050919050565b6000610c7a82610c4f565b9050919050565b610c8a81610c6f565b8114610c9557600080fd5b50565b600081359050610ca781610c81565b92915050565b600060208284031215610cc357610cc2610c4a565b5b6000610cd184828501610c98565b91505092915050565b6000819050919050565b610ced81610cda565b82525050565b6000602082019050610d086000830184610ce4565b92915050565b610d1781610cda565b8114610d2257600080fd5b50565b600081359050610d3481610d0e565b92915050565b600060208284031215610d5057610d4f610c4a565b5b6000610d5e84828501610d25565b91505092915050565b60008115159050919050565b610d7c81610d67565b82525050565b6000602082019050610d976000830184610d73565b92915050565b6000610da882610c4f565b9050919050565b610db881610d9d565b82525050565b6000602082019050610dd36000830184610daf565b92915050565b600081519050919050565b600082825260208201905092915050565b60005b83811015610e13578082015181840152602081019050610df8565b83811115610e22576000848401525b50505050565b6000601f19601f8301169050919050565b6000610e4482610dd9565b610e4e8185610de4565b9350610e5e818560208601610df5565b610e6781610e28565b840191505092915050565b60006020820190508181036000830152610e8c8184610e39565b905092915050565b610e9d81610c6f565b82525050565b6000608082019050610eb86000830187610ce4565b610ec56020830186610e94565b610ed26040830185610ce4565b610edf6060830184610d73565b95945050505050565b600081519050919050565b600082825260208201905092915050565b6000819050602082019050919050565b610f1d81610cda565b82525050565b610f2c81610c6f565b82525050565b610f3b81610d67565b82525050565b608082016000820151610f576000850182610f14565b506020820151610f6a6020850182610f23565b506040820151610f7d6040850182610f14565b506060820151610f906060850182610f32565b50505050565b6000610fa28383610f41565b60808301905092915050565b6000602082019050919050565b6000610fc682610ee8565b610fd08185610ef3565b9350610fdb83610f04565b8060005b8381101561100c578151610ff38882610f96565b9750610ffe83610fae565b925050600181019050610fdf565b5085935050505092915050565b600060208201905081810360008301526110338184610fbb565b905092915050565b60006020820190506110506000830184610e94565b92915050565b7f4f776e65722063616e6e6f74206269642e000000000000000000000000000000600082015250565b600061108c601183610de4565b915061109782611056565b602082019050919050565b600060208201905081810360008301526110bb8161107f565b9050919050565b7f5468652061756374696f6e2068617320616c726561647920656e6465642e0000600082015250565b60006110f8601e83610de4565b9150611103826110c2565b602082019050919050565b60006020820190508181036000830152611127816110eb565b9050919050565b7f546865726520697320616c7265616479206120686967686572206f722065717560008201527f616c206269642e00000000000000000000000000000000000000000000000000602082015250565b600061118a602783610de4565b91506111958261112e565b604082019050919050565b600060208201905081810360008301526111b98161117d565b9050919050565b7f4e487b7100000000000000000000000000000000000000000000000000000000600052601160045260246000fd5b60006111fa82610cda565b915061120583610cda565b9250827fffffffffffffffffffffffffffffffffffffffffffffffffffffffffffffffff0382111561123a576112396111c0565b5b828201905092915050565b600060408201905061125a6000830185610e94565b6112676020830184610ce4565b9392505050565b7f41756374696f6e20686173206e6f7420656e646564207965742e000000000000600082015250565b60006112a4601a83610de4565b91506112af8261126e565b602082019050919050565b600060208201905081810360008301526112d381611297565b9050919050565b7f41756374696f6e2068617320616c726561647920656e6465642c20617563746960008201527f6f6e20656e6465642063616c6c656420616c72656164792e0000000000000000602082015250565b6000611336603883610de4565b9150611341826112da565b604082019050919050565b6000602082019050818103600083015261136581611329565b9050919050565b7f4e6f2070656e64696e672072657475726e732e00000000000000000000000000600082015250565b60006113a2601383610de4565b91506113ad8261136c565b602082019050919050565b600060208201905081810360008301526113d181611395565b9050919050565b7f4e487b7100000000000000000000000000000000000000000000000000000000600052602260045260246000fd5b6000600282049050600182168061141f57607f821691505b60208210811415611433576114326113d8565b5b50919050565b7f4e487b7100000000000000000000000000000000000000000000000000000000600052604160045260246000fd5b7f4e487b7100000000000000000000000000000000000000000000000000000000600052603260045260246000fd5b60006114a282610cda565b91507fffffffffffffffffffffffffffffffffffffffffffffffffffffffffffffffff8214156114d5576114d46111c0565b5b60018201905091905056fea26469706673582212203fbb610dfbd44d7a752019d1887522ca7e4481abbbdd811034328ec8467794c564736f6c634300080a0033a26469706673582212205a4a3d2e392db7865cf374b1c132499fc932b2a7e5f2b1709d2905ff57cd3fd564736f6c634300080a0033",
  "immutableReferences": {},
  "source": "pragma solidity ^0.8.10;\n\nimport \"@openzeppelin/contracts/utils/Counters.sol\";\nimport \"@openzeppelin/contracts/security/ReentrancyGuard.sol\";\nimport \"@openzeppelin/contracts/token/ERC721/ERC721.sol\";\nimport \"./NFTAuction.sol\";\n\ncontract NFTMarket is ReentrancyGuard {\n    using Counters for Counters.Counter;\n    Counters.Counter private _itemIds;\n    Counters.Counter private _itemsSold;\n\n    address payable owner;\n    uint256 listingPrice = 0.025 ether;\n\n    constructor() {\n        owner = payable(msg.sender);\n    }\n\n    struct MarketItem {\n        uint256 itemId;\n        address nftContract;\n        uint256 tokenId;\n        address payable seller;\n        address payable owner;\n        uint256 price;\n        bool sold;\n        address auction;\n        string category;\n        address payable artist;\n        address collectionAddress;\n    }\n\n    mapping(uint256 => MarketItem) private idToMarketItem;\n\n    event MarketItemCreated(\n        uint256 indexed itemId,\n        address indexed nftContract,\n        uint256 indexed tokenId,\n        address seller,\n        address owner,\n        uint256 price,\n        bool sold\n    );\n\n    /* Returns the listing price of the contract */\n    function getListingPriceByItemPrice(uint256 _price)\n        public\n        pure\n        returns (uint256)\n    {\n        return ((_price) * 100) / 10000;\n    }\n\n    /* Returns the listing price of the contract */\n    function getListingPrice() public view returns (uint256) {\n        return listingPrice;\n    }\n\n    /* Places an item for sale on the marketplace */\n    function createMarketItem(\n        address nftContract,\n        uint256 tokenId,\n        uint256 price,\n        bool _isAuction,\n        uint256 _biddingTime,\n        string memory _auctionEndDate,\n        string memory _category,\n        address _collectionAddress\n    ) public payable nonReentrant {\n        require(price > 0, \"Price must be at least 1 wei\");\n        require(\n            msg.value == getListingPriceByItemPrice(price),\n            \"Price must be equal to listing price\"\n        );\n\n        _itemIds.increment();\n        uint256 itemId = _itemIds.current();\n\n        if (_isAuction) {\n            NFTAuction auc = new NFTAuction(\n                _biddingTime,\n                _auctionEndDate,\n                payable(msg.sender),\n                payable(msg.sender)\n            );\n            idToMarketItem[itemId] = MarketItem(\n                itemId,\n                nftContract,\n                tokenId,\n                payable(msg.sender),\n                payable(address(0)),\n                price,\n                false,\n                address(auc),\n                _category,\n                payable(msg.sender),\n                _collectionAddress\n            );\n        } else {\n            idToMarketItem[itemId] = MarketItem(\n                itemId,\n                nftContract,\n                tokenId,\n                payable(msg.sender),\n                payable(address(0)),\n                price,\n                false,\n                address(0),\n                _category,\n                payable(msg.sender),\n                _collectionAddress\n            );\n        }\n\n        IERC721(nftContract).transferFrom(msg.sender, address(this), tokenId);\n\n        emit MarketItemCreated(\n            itemId,\n            nftContract,\n            tokenId,\n            msg.sender,\n            address(0),\n            price,\n            false\n        );\n    }\n\n    /* resale bought item */\n    function resaleBoughtItem(\n        address nftContract,\n        uint256 itemId,\n        uint256 price,\n        bool _isAuction,\n        uint256 _biddingTime,\n        string memory _auctionEndDate\n    ) public payable nonReentrant {\n        require(\n            msg.sender == idToMarketItem[itemId].owner,\n            \"Only owner can resale item\"\n        );\n        require(\n            msg.value == getListingPriceByItemPrice(price),\n            \"Price must be equal to listing price\"\n        );\n\n        uint256 tokenId = idToMarketItem[itemId].tokenId;\n\n        if (_isAuction) {\n            NFTAuction auc = new NFTAuction(\n                _biddingTime,\n                _auctionEndDate,\n                payable(msg.sender),\n                payable(idToMarketItem[itemId].artist)\n            );\n            idToMarketItem[itemId].auction = address(auc);\n        } else {\n            idToMarketItem[itemId].auction = address(0);\n        }\n        idToMarketItem[itemId].price = price;\n        idToMarketItem[itemId].seller = payable(msg.sender);\n        idToMarketItem[itemId].owner = payable(address(0));\n        idToMarketItem[itemId].sold = false;\n\n        IERC721(nftContract).transferFrom(msg.sender, address(this), tokenId);\n        _itemsSold.decrement();\n    }\n\n    /* Creates the sale of a marketplace item */\n    /* Transfers ownership of the item, as well as funds between parties */\n    function createMarketSale(address nftContract, uint256 itemId)\n        public\n        payable\n        nonReentrant\n    {\n        uint256 price = idToMarketItem[itemId].price;\n        uint256 tokenId = idToMarketItem[itemId].tokenId;\n        require(\n            msg.value == price,\n            \"Please submit the asking price in order to complete the purchase\"\n        );\n\n        idToMarketItem[itemId].seller.transfer(msg.value);\n        IERC721(nftContract).transferFrom(address(this), msg.sender, tokenId);\n        idToMarketItem[itemId].owner = payable(msg.sender);\n        idToMarketItem[itemId].sold = true;\n        _itemsSold.increment();\n        payable(owner).transfer(\n            getListingPriceByItemPrice(idToMarketItem[itemId].price)\n        );\n    }\n\n    /* accept highest bid and transfer */\n    function transferAsset(\n        address nftContract,\n        uint256 _itemId,\n        address _buyer\n    ) public returns (bool) {\n        uint256 tokenId = idToMarketItem[_itemId].tokenId;\n        require(\n            idToMarketItem[_itemId].auction != address(0),\n            \"Auction does not exist\"\n        );\n        require(\n            idToMarketItem[_itemId].seller == msg.sender,\n            \"Only seller can transfer asset\"\n        );\n\n        IERC721(nftContract).transferFrom(address(this), _buyer, tokenId);\n        idToMarketItem[_itemId].owner = payable(_buyer);\n        idToMarketItem[_itemId].sold = true;\n        _itemsSold.increment();\n        return true;\n    }\n\n    /* Returns all unsold market items */\n    function fetchMarketItems() public view returns (MarketItem[] memory) {\n        uint256 itemCount = _itemIds.current();\n        uint256 unsoldItemCount = _itemIds.current() - _itemsSold.current();\n        uint256 currentIndex = 0;\n\n        MarketItem[] memory items = new MarketItem[](unsoldItemCount);\n        for (uint256 i = 0; i < itemCount; i++) {\n            if (idToMarketItem[i + 1].owner == address(0)) {\n                uint256 currentId = i + 1;\n                MarketItem storage currentItem = idToMarketItem[currentId];\n                items[currentIndex] = currentItem;\n                currentIndex += 1;\n            }\n        }\n        return items;\n    }\n\n    /* Returns onlyl items that a user has purchased */\n    function fetchMyNFTs() public view returns (MarketItem[] memory) {\n        uint256 totalItemCount = _itemIds.current();\n        uint256 itemCount = 0;\n        uint256 currentIndex = 0;\n\n        for (uint256 i = 0; i < totalItemCount; i++) {\n            if (idToMarketItem[i + 1].owner == msg.sender) {\n                itemCount += 1;\n            }\n        }\n\n        MarketItem[] memory items = new MarketItem[](itemCount);\n        for (uint256 i = 0; i < totalItemCount; i++) {\n            if (idToMarketItem[i + 1].owner == msg.sender) {\n                uint256 currentId = i + 1;\n                MarketItem storage currentItem = idToMarketItem[currentId];\n                items[currentIndex] = currentItem;\n                currentIndex += 1;\n            }\n        }\n        return items;\n    }\n\n    /* Returns only items a user has created */\n    function fetchItemsCreated() public view returns (MarketItem[] memory) {\n        uint256 totalItemCount = _itemIds.current();\n        uint256 itemCount = 0;\n        uint256 currentIndex = 0;\n\n        for (uint256 i = 0; i < totalItemCount; i++) {\n            if (idToMarketItem[i + 1].seller == msg.sender) {\n                itemCount += 1;\n            }\n        }\n\n        MarketItem[] memory items = new MarketItem[](itemCount);\n        for (uint256 i = 0; i < totalItemCount; i++) {\n            if (idToMarketItem[i + 1].seller == msg.sender) {\n                uint256 currentId = i + 1;\n                MarketItem storage currentItem = idToMarketItem[currentId];\n                items[currentIndex] = currentItem;\n                currentIndex += 1;\n            }\n        }\n        return items;\n    }\n\n    /* get item by id */\n    function getItemByID(uint256 _id) public view returns (MarketItem memory) {\n        return idToMarketItem[_id];\n    }\n\n    /* get items by catgory */\n    function fetctNFTsByCatgory(string memory _category)\n        public\n        view\n        returns (MarketItem[] memory)\n    {\n        uint256 totalItemCount = _itemIds.current();\n        uint256 itemCount = 0;\n        uint256 currentIndex = 0;\n\n        for (uint256 i = 0; i < totalItemCount; i++) {\n            if (\n                keccak256(bytes(idToMarketItem[i + 1].category)) ==\n                keccak256(bytes(_category)) &&\n                !idToMarketItem[i + 1].sold\n            ) {\n                itemCount += 1;\n            }\n        }\n\n        MarketItem[] memory items = new MarketItem[](itemCount);\n        for (uint256 i = 0; i < totalItemCount; i++) {\n            if (\n                keccak256(bytes(idToMarketItem[i + 1].category)) ==\n                keccak256(bytes(_category)) &&\n                !idToMarketItem[i + 1].sold\n            ) {\n                uint256 currentId = i + 1;\n                MarketItem storage currentItem = idToMarketItem[currentId];\n                items[currentIndex] = currentItem;\n                currentIndex += 1;\n            }\n        }\n        return items;\n    }\n\n    /* get items by catgory */\n    function fetctNFTsByCollection(address _collectionAddress)\n        public\n        view\n        returns (MarketItem[] memory)\n    {\n        uint256 totalItemCount = _itemIds.current();\n        uint256 itemCount = 0;\n        uint256 currentIndex = 0;\n\n        for (uint256 i = 0; i < totalItemCount; i++) {\n            if (address(idToMarketItem[i + 1].collectionAddress) == address(_collectionAddress)) {\n                itemCount += 1;\n            }\n        }\n\n        MarketItem[] memory items = new MarketItem[](itemCount);\n        for (uint256 i = 0; i < totalItemCount; i++) {\n            if (address(idToMarketItem[i + 1].collectionAddress) == address(_collectionAddress)) {\n                uint256 currentId = i + 1;\n                MarketItem storage currentItem = idToMarketItem[currentId];\n                items[currentIndex] = currentItem;\n                currentIndex += 1;\n            }\n        }\n        return items;\n    }\n}\n",
  "sourcePath": "/Users/apple/Documents/blockchain/superway-bsc/contracts/NFTMarket.sol",
  "compiler": {
    "name": "solc",
    "version": "0.8.10+commit.fc410830.Emscripten.clang"
  },
  "schemaVersion": "3.4.4",
  "updatedAt": "2022-03-14T09:32:11.152Z",
  "networkType": "ethereum",
  "devdoc": {
    "kind": "dev",
    "methods": {},
    "version": 1
  },
  "userdoc": {
    "kind": "user",
    "methods": {},
    "version": 1
  }
}