{
  "contractName": "NFTSingleCollection",
  "abi": [
    {
      "inputs": [
        {
          "internalType": "string",
          "name": "_name",
          "type": "string"
        },
        {
          "internalType": "string",
          "name": "_imageUrl",
          "type": "string"
        },
        {
          "internalType": "string",
          "name": "_coverUrl",
          "type": "string"
        }
      ],
      "stateMutability": "nonpayable",
      "type": "constructor"
    },
    {
      "inputs": [],
      "name": "coverUrl",
      "outputs": [
        {
          "internalType": "string",
          "name": "",
          "type": "string"
        }
      ],
      "stateMutability": "view",
      "type": "function"
    },
    {
      "inputs": [],
      "name": "imageUrl",
      "outputs": [
        {
          "internalType": "string",
          "name": "",
          "type": "string"
        }
      ],
      "stateMutability": "view",
      "type": "function"
    },
    {
      "inputs": [],
      "name": "name",
      "outputs": [
        {
          "internalType": "string",
          "name": "",
          "type": "string"
        }
      ],
      "stateMutability": "view",
      "type": "function"
    }
  ],
  "bytecode": "0x60806040523480156200001157600080fd5b50604051620007a2380380620007a28339818101604052810190620000379190620002d8565b82600290805190602001906200004f9291906200008b565b508160009080519060200190620000689291906200008b565b508060019080519060200190620000819291906200008b565b50505050620003f6565b8280546200009990620003c0565b90600052602060002090601f016020900481019282620000bd576000855562000109565b82601f10620000d857805160ff191683800117855562000109565b8280016001018555821562000109579182015b8281111562000108578251825591602001919060010190620000eb565b5b5090506200011891906200011c565b5090565b5b80821115620001375760008160009055506001016200011d565b5090565b6000604051905090565b600080fd5b600080fd5b600080fd5b600080fd5b6000601f19601f8301169050919050565b7f4e487b7100000000000000000000000000000000000000000000000000000000600052604160045260246000fd5b620001a48262000159565b810181811067ffffffffffffffff82111715620001c657620001c56200016a565b5b80604052505050565b6000620001db6200013b565b9050620001e9828262000199565b919050565b600067ffffffffffffffff8211156200020c576200020b6200016a565b5b620002178262000159565b9050602081019050919050565b60005b838110156200024457808201518184015260208101905062000227565b8381111562000254576000848401525b50505050565b6000620002716200026b84620001ee565b620001cf565b90508281526020810184848401111562000290576200028f62000154565b5b6200029d84828562000224565b509392505050565b600082601f830112620002bd57620002bc6200014f565b5b8151620002cf8482602086016200025a565b91505092915050565b600080600060608486031215620002f457620002f362000145565b5b600084015167ffffffffffffffff8111156200031557620003146200014a565b5b6200032386828701620002a5565b935050602084015167ffffffffffffffff8111156200034757620003466200014a565b5b6200035586828701620002a5565b925050604084015167ffffffffffffffff8111156200037957620003786200014a565b5b6200038786828701620002a5565b9150509250925092565b7f4e487b7100000000000000000000000000000000000000000000000000000000600052602260045260246000fd5b60006002820490506001821680620003d957607f821691505b60208210811415620003f057620003ef62000391565b5b50919050565b61039c80620004066000396000f3fe608060405234801561001057600080fd5b50600436106100415760003560e01c806306fdde03146100465780634e45cca114610064578063aba8315014610082575b600080fd5b61004e6100a0565b60405161005b91906102e3565b60405180910390f35b61006c61012e565b60405161007991906102e3565b60405180910390f35b61008a6101bc565b60405161009791906102e3565b60405180910390f35b600280546100ad90610334565b80601f01602080910402602001604051908101604052809291908181526020018280546100d990610334565b80156101265780601f106100fb57610100808354040283529160200191610126565b820191906000526020600020905b81548152906001019060200180831161010957829003601f168201915b505050505081565b6001805461013b90610334565b80601f016020809104026020016040519081016040528092919081815260200182805461016790610334565b80156101b45780601f10610189576101008083540402835291602001916101b4565b820191906000526020600020905b81548152906001019060200180831161019757829003601f168201915b505050505081565b600080546101c990610334565b80601f01602080910402602001604051908101604052809291908181526020018280546101f590610334565b80156102425780601f1061021757610100808354040283529160200191610242565b820191906000526020600020905b81548152906001019060200180831161022557829003601f168201915b505050505081565b600081519050919050565b600082825260208201905092915050565b60005b83811015610284578082015181840152602081019050610269565b83811115610293576000848401525b50505050565b6000601f19601f8301169050919050565b60006102b58261024a565b6102bf8185610255565b93506102cf818560208601610266565b6102d881610299565b840191505092915050565b600060208201905081810360008301526102fd81846102aa565b905092915050565b7f4e487b7100000000000000000000000000000000000000000000000000000000600052602260045260246000fd5b6000600282049050600182168061034c57607f821691505b602082108114156103605761035f610305565b5b5091905056fea26469706673582212207e3a821bc0e591a5b51a733950ec1d85fb354554f776b86d3193c9025738039464736f6c634300080a0033",
  "immutableReferences": {},
  "source": "pragma solidity ^0.8.10;\n\ncontract NFTSingleCollection {\n    string public imageUrl;\n    string public coverUrl;\n    string public name;\n\n    constructor(\n        string memory _name,\n        string memory _imageUrl,\n        string memory _coverUrl\n    ) {\n        name = _name;\n        imageUrl = _imageUrl;\n        coverUrl = _coverUrl;\n    }\n}\n",
  "sourcePath": "/Users/apple/Documents/blockchain/superway-bsc/contracts/NFTSingleCollection.sol",
  "compiler": {
    "name": "solc",
    "version": "0.8.10+commit.fc410830.Emscripten.clang"
  },
  "schemaVersion": "3.4.4",
  "updatedAt": "2022-02-23T08:11:06.043Z",
  "devdoc": {
    "kind": "dev",
    "methods": {},
    "version": 1
  },
  "userdoc": {
    "kind": "user",
    "methods": {},
    "version": 1
  }
}